{
  "_format": "hh-sol-artifact-1",
  "contractName": "AnonCard",
  "sourceName": "contracts/AnonCard.sol",
  "abi": [
    {
      "inputs": [],
      "stateMutability": "nonpayable",
      "type": "constructor"
    },
    {
      "anonymous": false,
      "inputs": [
        {
          "indexed": true,
          "internalType": "address",
          "name": "owner",
          "type": "address"
        },
        {
          "indexed": true,
          "internalType": "address",
          "name": "approved",
          "type": "address"
        },
        {
          "indexed": true,
          "internalType": "uint256",
          "name": "tokenId",
          "type": "uint256"
        }
      ],
      "name": "Approval",
      "type": "event"
    },
    {
      "anonymous": false,
      "inputs": [
        {
          "indexed": true,
          "internalType": "address",
          "name": "owner",
          "type": "address"
        },
        {
          "indexed": true,
          "internalType": "address",
          "name": "operator",
          "type": "address"
        },
        {
          "indexed": false,
          "internalType": "bool",
          "name": "approved",
          "type": "bool"
        }
      ],
      "name": "ApprovalForAll",
      "type": "event"
    },
    {
      "anonymous": false,
      "inputs": [
        {
          "indexed": true,
          "internalType": "address",
          "name": "from",
          "type": "address"
        },
        {
          "indexed": true,
          "internalType": "address",
          "name": "to",
          "type": "address"
        },
        {
          "indexed": true,
          "internalType": "uint256",
          "name": "tokenId",
          "type": "uint256"
        }
      ],
      "name": "Transfer",
      "type": "event"
    },
    {
      "inputs": [
        {
          "internalType": "address",
          "name": "to",
          "type": "address"
        },
        {
          "internalType": "uint256",
          "name": "tokenId",
          "type": "uint256"
        }
      ],
      "name": "approve",
      "outputs": [],
      "stateMutability": "nonpayable",
      "type": "function"
    },
    {
      "inputs": [
        {
          "internalType": "address",
          "name": "owner",
          "type": "address"
        }
      ],
      "name": "balanceOf",
      "outputs": [
        {
          "internalType": "uint256",
          "name": "",
          "type": "uint256"
        }
      ],
      "stateMutability": "view",
      "type": "function"
    },
    {
      "inputs": [
        {
          "internalType": "uint256",
          "name": "tokenId",
          "type": "uint256"
        }
      ],
      "name": "burn",
      "outputs": [],
      "stateMutability": "nonpayable",
      "type": "function"
    },
    {
      "inputs": [
        {
          "internalType": "uint256",
          "name": "tokenId",
          "type": "uint256"
        }
      ],
      "name": "getApproved",
      "outputs": [
        {
          "internalType": "address",
          "name": "",
          "type": "address"
        }
      ],
      "stateMutability": "view",
      "type": "function"
    },
    {
      "inputs": [
        {
          "internalType": "address",
          "name": "owner",
          "type": "address"
        },
        {
          "internalType": "address",
          "name": "operator",
          "type": "address"
        }
      ],
      "name": "isApprovedForAll",
      "outputs": [
        {
          "internalType": "bool",
          "name": "",
          "type": "bool"
        }
      ],
      "stateMutability": "view",
      "type": "function"
    },
    {
      "inputs": [],
      "name": "name",
      "outputs": [
        {
          "internalType": "string",
          "name": "",
          "type": "string"
        }
      ],
      "stateMutability": "view",
      "type": "function"
    },
    {
      "inputs": [
        {
          "internalType": "uint256",
          "name": "tokenId",
          "type": "uint256"
        }
      ],
      "name": "ownerOf",
      "outputs": [
        {
          "internalType": "address",
          "name": "",
          "type": "address"
        }
      ],
      "stateMutability": "view",
      "type": "function"
    },
    {
      "inputs": [
        {
          "internalType": "address",
          "name": "to",
          "type": "address"
        },
        {
          "internalType": "string",
          "name": "uri",
          "type": "string"
        }
      ],
      "name": "safeMint",
      "outputs": [],
      "stateMutability": "nonpayable",
      "type": "function"
    },
    {
      "inputs": [
        {
          "internalType": "address",
          "name": "from",
          "type": "address"
        },
        {
          "internalType": "address",
          "name": "to",
          "type": "address"
        },
        {
          "internalType": "uint256",
          "name": "tokenId",
          "type": "uint256"
        }
      ],
      "name": "safeTransferFrom",
      "outputs": [],
      "stateMutability": "nonpayable",
      "type": "function"
    },
    {
      "inputs": [
        {
          "internalType": "address",
          "name": "from",
          "type": "address"
        },
        {
          "internalType": "address",
          "name": "to",
          "type": "address"
        },
        {
          "internalType": "uint256",
          "name": "tokenId",
          "type": "uint256"
        },
        {
          "internalType": "bytes",
          "name": "data",
          "type": "bytes"
        }
      ],
      "name": "safeTransferFrom",
      "outputs": [],
      "stateMutability": "nonpayable",
      "type": "function"
    },
    {
      "inputs": [
        {
          "internalType": "address",
          "name": "operator",
          "type": "address"
        },
        {
          "internalType": "bool",
          "name": "approved",
          "type": "bool"
        }
      ],
      "name": "setApprovalForAll",
      "outputs": [],
      "stateMutability": "nonpayable",
      "type": "function"
    },
    {
      "inputs": [
        {
          "internalType": "bytes4",
          "name": "interfaceId",
          "type": "bytes4"
        }
      ],
      "name": "supportsInterface",
      "outputs": [
        {
          "internalType": "bool",
          "name": "",
          "type": "bool"
        }
      ],
      "stateMutability": "view",
      "type": "function"
    },
    {
      "inputs": [],
      "name": "symbol",
      "outputs": [
        {
          "internalType": "string",
          "name": "",
          "type": "string"
        }
      ],
      "stateMutability": "view",
      "type": "function"
    },
    {
      "inputs": [
        {
          "internalType": "uint256",
          "name": "index",
          "type": "uint256"
        }
      ],
      "name": "tokenByIndex",
      "outputs": [
        {
          "internalType": "uint256",
          "name": "",
          "type": "uint256"
        }
      ],
      "stateMutability": "view",
      "type": "function"
    },
    {
      "inputs": [
        {
          "internalType": "address",
          "name": "owner",
          "type": "address"
        },
        {
          "internalType": "uint256",
          "name": "index",
          "type": "uint256"
        }
      ],
      "name": "tokenOfOwnerByIndex",
      "outputs": [
        {
          "internalType": "uint256",
          "name": "",
          "type": "uint256"
        }
      ],
      "stateMutability": "view",
      "type": "function"
    },
    {
      "inputs": [
        {
          "internalType": "uint256",
          "name": "tokenId",
          "type": "uint256"
        }
      ],
      "name": "tokenURI",
      "outputs": [
        {
          "internalType": "string",
          "name": "",
          "type": "string"
        }
      ],
      "stateMutability": "view",
      "type": "function"
    },
    {
      "inputs": [],
      "name": "totalSupply",
      "outputs": [
        {
          "internalType": "uint256",
          "name": "",
          "type": "uint256"
        }
      ],
      "stateMutability": "view",
      "type": "function"
    },
    {
      "inputs": [
        {
          "internalType": "address",
          "name": "from",
          "type": "address"
        },
        {
          "internalType": "address",
          "name": "to",
          "type": "address"
        },
        {
          "internalType": "uint256",
          "name": "tokenId",
          "type": "uint256"
        }
      ],
      "name": "transferFrom",
      "outputs": [],
      "stateMutability": "nonpayable",
      "type": "function"
    }
  ],
  "bytecode": "0x60806040523480156200001157600080fd5b506040518060400160405280600881526020017f416e6f6e436172640000000000000000000000000000000000000000000000008152506040518060400160405280600881526020017f414e4f4e4341524400000000000000000000000000000000000000000000000081525081600090816200008f919062000324565b508060019081620000a1919062000324565b5050506200040b565b600081519050919050565b7f4e487b7100000000000000000000000000000000000000000000000000000000600052604160045260246000fd5b7f4e487b7100000000000000000000000000000000000000000000000000000000600052602260045260246000fd5b600060028204905060018216806200012c57607f821691505b602082108103620001425762000141620000e4565b5b50919050565b60008190508160005260206000209050919050565b60006020601f8301049050919050565b600082821b905092915050565b600060088302620001ac7fffffffffffffffffffffffffffffffffffffffffffffffffffffffffffffffff826200016d565b620001b886836200016d565b95508019841693508086168417925050509392505050565b6000819050919050565b6000819050919050565b600062000205620001ff620001f984620001d0565b620001da565b620001d0565b9050919050565b6000819050919050565b6200022183620001e4565b6200023962000230826200020c565b8484546200017a565b825550505050565b600090565b6200025062000241565b6200025d81848462000216565b505050565b5b8181101562000285576200027960008262000246565b60018101905062000263565b5050565b601f821115620002d4576200029e8162000148565b620002a9846200015d565b81016020851015620002b9578190505b620002d1620002c8856200015d565b83018262000262565b50505b505050565b600082821c905092915050565b6000620002f960001984600802620002d9565b1980831691505092915050565b6000620003148383620002e6565b9150826002028217905092915050565b6200032f82620000aa565b67ffffffffffffffff8111156200034b576200034a620000b5565b5b62000357825462000113565b6200036482828562000289565b600060209050601f8311600181146200039c576000841562000387578287015190505b62000393858262000306565b86555062000403565b601f198416620003ac8662000148565b60005b82811015620003d657848901518255600182019150602085019450602081019050620003af565b86831015620003f65784890151620003f2601f891682620002e6565b8355505b6001600288020188555050505b505050505050565b613680806200041b6000396000f3fe608060405234801561001057600080fd5b50600436106101165760003560e01c80634f6ccce7116100a2578063a22cb46511610071578063a22cb46514610305578063b88d4fde14610321578063c87b56dd1461033d578063d204c45e1461036d578063e985e9c51461038957610116565b80634f6ccce7146102575780636352211e1461028757806370a08231146102b757806395d89b41146102e757610116565b806318160ddd116100e957806318160ddd146101b557806323b872dd146101d35780632f745c59146101ef57806342842e0e1461021f57806342966c681461023b57610116565b806301ffc9a71461011b57806306fdde031461014b578063081812fc14610169578063095ea7b314610199575b600080fd5b610135600480360381019061013091906122f8565b6103b9565b6040516101429190612340565b60405180910390f35b6101536103cb565b60405161016091906123eb565b60405180910390f35b610183600480360381019061017e9190612443565b61045d565b60405161019091906124b1565b60405180910390f35b6101b360048036038101906101ae91906124f8565b6104a3565b005b6101bd6105ba565b6040516101ca9190612547565b60405180910390f35b6101ed60048036038101906101e89190612562565b6105c7565b005b610209600480360381019061020491906124f8565b610627565b6040516102169190612547565b60405180910390f35b61023960048036038101906102349190612562565b6106cc565b005b61025560048036038101906102509190612443565b6106ec565b005b610271600480360381019061026c9190612443565b610748565b60405161027e9190612547565b60405180910390f35b6102a1600480360381019061029c9190612443565b6107b9565b6040516102ae91906124b1565b60405180910390f35b6102d160048036038101906102cc91906125b5565b61083f565b6040516102de9190612547565b60405180910390f35b6102ef6108f6565b6040516102fc91906123eb565b60405180910390f35b61031f600480360381019061031a919061260e565b610988565b005b61033b60048036038101906103369190612783565b61099e565b005b61035760048036038101906103529190612443565b610a00565b60405161036491906123eb565b60405180910390f35b610387600480360381019061038291906128a7565b610a12565b005b6103a3600480360381019061039e9190612903565b610a43565b6040516103b09190612340565b60405180910390f35b60006103c482610ad7565b9050919050565b6060600080546103da90612972565b80601f016020809104026020016040519081016040528092919081815260200182805461040690612972565b80156104535780601f1061042857610100808354040283529160200191610453565b820191906000526020600020905b81548152906001019060200180831161043657829003601f168201915b5050505050905090565b600061046882610b51565b6004600083815260200190815260200160002060009054906101000a900473ffffffffffffffffffffffffffffffffffffffff169050919050565b60006104ae826107b9565b90508073ffffffffffffffffffffffffffffffffffffffff168373ffffffffffffffffffffffffffffffffffffffff160361051e576040517f08c379a000000000000000000000000000000000000000000000000000000000815260040161051590612a15565b60405180910390fd5b8073ffffffffffffffffffffffffffffffffffffffff1661053d610b9c565b73ffffffffffffffffffffffffffffffffffffffff16148061056c575061056b81610566610b9c565b610a43565b5b6105ab576040517f08c379a00000000000000000000000000000000000000000000000000000000081526004016105a290612aa7565b60405180910390fd5b6105b58383610ba4565b505050565b6000600880549050905090565b6105d86105d2610b9c565b82610c5d565b610617576040517f08c379a000000000000000000000000000000000000000000000000000000000815260040161060e90612b39565b60405180910390fd5b610622838383610cf2565b505050565b60006106328361083f565b8210610673576040517f08c379a000000000000000000000000000000000000000000000000000000000815260040161066a90612bcb565b60405180910390fd5b600660008473ffffffffffffffffffffffffffffffffffffffff1673ffffffffffffffffffffffffffffffffffffffff168152602001908152602001600020600083815260200190815260200160002054905092915050565b6106e78383836040518060200160405280600081525061099e565b505050565b6106fd6106f7610b9c565b82610c5d565b61073c576040517f08c379a000000000000000000000000000000000000000000000000000000000815260040161073390612b39565b60405180910390fd5b61074581610feb565b50565b60006107526105ba565b8210610793576040517f08c379a000000000000000000000000000000000000000000000000000000000815260040161078a90612c5d565b60405180910390fd5b600882815481106107a7576107a6612c7d565b5b90600052602060002001549050919050565b6000806107c583610ff7565b9050600073ffffffffffffffffffffffffffffffffffffffff168173ffffffffffffffffffffffffffffffffffffffff1603610836576040517f08c379a000000000000000000000000000000000000000000000000000000000815260040161082d90612cf8565b60405180910390fd5b80915050919050565b60008073ffffffffffffffffffffffffffffffffffffffff168273ffffffffffffffffffffffffffffffffffffffff16036108af576040517f08c379a00000000000000000000000000000000000000000000000000000000081526004016108a690612d8a565b60405180910390fd5b600360008373ffffffffffffffffffffffffffffffffffffffff1673ffffffffffffffffffffffffffffffffffffffff168152602001908152602001600020549050919050565b60606001805461090590612972565b80601f016020809104026020016040519081016040528092919081815260200182805461093190612972565b801561097e5780601f106109535761010080835404028352916020019161097e565b820191906000526020600020905b81548152906001019060200180831161096157829003601f168201915b5050505050905090565b61099a610993610b9c565b8383611034565b5050565b6109af6109a9610b9c565b83610c5d565b6109ee576040517f08c379a00000000000000000000000000000000000000000000000000000000081526004016109e590612b39565b60405180910390fd5b6109fa848484846111a0565b50505050565b6060610a0b826111fc565b9050919050565b6000610a1e600b61130e565b9050610a2a600b61131c565b610a348382611332565b610a3e8183611350565b505050565b6000600560008473ffffffffffffffffffffffffffffffffffffffff1673ffffffffffffffffffffffffffffffffffffffff16815260200190815260200160002060008373ffffffffffffffffffffffffffffffffffffffff1673ffffffffffffffffffffffffffffffffffffffff16815260200190815260200160002060009054906101000a900460ff16905092915050565b60007f780e9d63000000000000000000000000000000000000000000000000000000007bffffffffffffffffffffffffffffffffffffffffffffffffffffffff1916827bffffffffffffffffffffffffffffffffffffffffffffffffffffffff19161480610b4a5750610b49826113bd565b5b9050919050565b610b5a8161149f565b610b99576040517f08c379a0000000000000000000000000000000000000000000000000000000008152600401610b9090612cf8565b60405180910390fd5b50565b600033905090565b816004600083815260200190815260200160002060006101000a81548173ffffffffffffffffffffffffffffffffffffffff021916908373ffffffffffffffffffffffffffffffffffffffff160217905550808273ffffffffffffffffffffffffffffffffffffffff16610c17836107b9565b73ffffffffffffffffffffffffffffffffffffffff167f8c5be1e5ebec7d5bd14f71427d1e84f3dd0314c0f7b2291e5b200ac8c7c3b92560405160405180910390a45050565b600080610c69836107b9565b90508073ffffffffffffffffffffffffffffffffffffffff168473ffffffffffffffffffffffffffffffffffffffff161480610cab5750610caa8185610a43565b5b80610ce957508373ffffffffffffffffffffffffffffffffffffffff16610cd18461045d565b73ffffffffffffffffffffffffffffffffffffffff16145b91505092915050565b8273ffffffffffffffffffffffffffffffffffffffff16610d12826107b9565b73ffffffffffffffffffffffffffffffffffffffff1614610d68576040517f08c379a0000000000000000000000000000000000000000000000000000000008152600401610d5f90612e1c565b60405180910390fd5b600073ffffffffffffffffffffffffffffffffffffffff168273ffffffffffffffffffffffffffffffffffffffff1603610dd7576040517f08c379a0000000000000000000000000000000000000000000000000000000008152600401610dce90612eae565b60405180910390fd5b610de483838360016114e0565b8273ffffffffffffffffffffffffffffffffffffffff16610e04826107b9565b73ffffffffffffffffffffffffffffffffffffffff1614610e5a576040517f08c379a0000000000000000000000000000000000000000000000000000000008152600401610e5190612e1c565b60405180910390fd5b6004600082815260200190815260200160002060006101000a81549073ffffffffffffffffffffffffffffffffffffffff02191690556001600360008573ffffffffffffffffffffffffffffffffffffffff1673ffffffffffffffffffffffffffffffffffffffff168152602001908152602001600020600082825403925050819055506001600360008473ffffffffffffffffffffffffffffffffffffffff1673ffffffffffffffffffffffffffffffffffffffff16815260200190815260200160002060008282540192505081905550816002600083815260200190815260200160002060006101000a81548173ffffffffffffffffffffffffffffffffffffffff021916908373ffffffffffffffffffffffffffffffffffffffff160217905550808273ffffffffffffffffffffffffffffffffffffffff168473ffffffffffffffffffffffffffffffffffffffff167fddf252ad1be2c89b69c2b068fc378daa952ba7f163c4a11628f55a4df523b3ef60405160405180910390a4610fe683838360016114f2565b505050565b610ff4816114f8565b50565b60006002600083815260200190815260200160002060009054906101000a900473ffffffffffffffffffffffffffffffffffffffff169050919050565b8173ffffffffffffffffffffffffffffffffffffffff168373ffffffffffffffffffffffffffffffffffffffff16036110a2576040517f08c379a000000000000000000000000000000000000000000000000000000000815260040161109990612f1a565b60405180910390fd5b80600560008573ffffffffffffffffffffffffffffffffffffffff1673ffffffffffffffffffffffffffffffffffffffff16815260200190815260200160002060008473ffffffffffffffffffffffffffffffffffffffff1673ffffffffffffffffffffffffffffffffffffffff16815260200190815260200160002060006101000a81548160ff0219169083151502179055508173ffffffffffffffffffffffffffffffffffffffff168373ffffffffffffffffffffffffffffffffffffffff167f17307eab39ab6107e8899845ad3d59bd9653f200f220920489ca2b5937696c31836040516111939190612340565b60405180910390a3505050565b6111ab848484610cf2565b6111b78484848461154b565b6111f6576040517f08c379a00000000000000000000000000000000000000000000000000000000081526004016111ed90612fac565b60405180910390fd5b50505050565b606061120782610b51565b6000600a6000848152602001908152602001600020805461122790612972565b80601f016020809104026020016040519081016040528092919081815260200182805461125390612972565b80156112a05780601f10611275576101008083540402835291602001916112a0565b820191906000526020600020905b81548152906001019060200180831161128357829003601f168201915b5050505050905060006112b16116d2565b905060008151036112c6578192505050611309565b6000825111156112fb5780826040516020016112e3929190613008565b60405160208183030381529060405292505050611309565b611304846116e9565b925050505b919050565b600081600001549050919050565b6001816000016000828254019250508190555050565b61134c828260405180602001604052806000815250611751565b5050565b6113598261149f565b611398576040517f08c379a000000000000000000000000000000000000000000000000000000000815260040161138f9061309e565b60405180910390fd5b80600a600084815260200190815260200160002090816113b8919061326a565b505050565b60007f80ac58cd000000000000000000000000000000000000000000000000000000007bffffffffffffffffffffffffffffffffffffffffffffffffffffffff1916827bffffffffffffffffffffffffffffffffffffffffffffffffffffffff1916148061148857507f5b5e139f000000000000000000000000000000000000000000000000000000007bffffffffffffffffffffffffffffffffffffffffffffffffffffffff1916827bffffffffffffffffffffffffffffffffffffffffffffffffffffffff1916145b806114985750611497826117ac565b5b9050919050565b60008073ffffffffffffffffffffffffffffffffffffffff166114c183610ff7565b73ffffffffffffffffffffffffffffffffffffffff1614159050919050565b6114ec84848484611816565b50505050565b50505050565b61150181611974565b6000600a6000838152602001908152602001600020805461152190612972565b90501461154857600a60008281526020019081526020016000206000611547919061222f565b5b50565b600061156c8473ffffffffffffffffffffffffffffffffffffffff16611ac2565b156116c5578373ffffffffffffffffffffffffffffffffffffffff1663150b7a02611595610b9c565b8786866040518563ffffffff1660e01b81526004016115b79493929190613391565b6020604051808303816000875af19250505080156115f357506040513d601f19601f820116820180604052508101906115f091906133f2565b60015b611675573d8060008114611623576040519150601f19603f3d011682016040523d82523d6000602084013e611628565b606091505b50600081510361166d576040517f08c379a000000000000000000000000000000000000000000000000000000000815260040161166490612fac565b60405180910390fd5b805181602001fd5b63150b7a0260e01b7bffffffffffffffffffffffffffffffffffffffffffffffffffffffff1916817bffffffffffffffffffffffffffffffffffffffffffffffffffffffff1916149150506116ca565b600190505b949350505050565b606060405180602001604052806000815250905090565b60606116f482610b51565b60006116fe6116d2565b9050600081511161171e5760405180602001604052806000815250611749565b8061172884611ae5565b604051602001611739929190613008565b6040516020818303038152906040525b915050919050565b61175b8383611bb3565b611768600084848461154b565b6117a7576040517f08c379a000000000000000000000000000000000000000000000000000000000815260040161179e90612fac565b60405180910390fd5b505050565b60007f01ffc9a7000000000000000000000000000000000000000000000000000000007bffffffffffffffffffffffffffffffffffffffffffffffffffffffff1916827bffffffffffffffffffffffffffffffffffffffffffffffffffffffff1916149050919050565b61182284848484611dd0565b6001811115611866576040517f08c379a000000000000000000000000000000000000000000000000000000000815260040161185d90613491565b60405180910390fd5b6000829050600073ffffffffffffffffffffffffffffffffffffffff168573ffffffffffffffffffffffffffffffffffffffff16036118ad576118a881611dd6565b6118ec565b8373ffffffffffffffffffffffffffffffffffffffff168573ffffffffffffffffffffffffffffffffffffffff16146118eb576118ea8582611e1f565b5b5b600073ffffffffffffffffffffffffffffffffffffffff168473ffffffffffffffffffffffffffffffffffffffff160361192e5761192981611f8c565b61196d565b8473ffffffffffffffffffffffffffffffffffffffff168473ffffffffffffffffffffffffffffffffffffffff161461196c5761196b848261205d565b5b5b5050505050565b600061197f826107b9565b905061198f8160008460016114e0565b611998826107b9565b90506004600083815260200190815260200160002060006101000a81549073ffffffffffffffffffffffffffffffffffffffff02191690556001600360008373ffffffffffffffffffffffffffffffffffffffff1673ffffffffffffffffffffffffffffffffffffffff168152602001908152602001600020600082825403925050819055506002600083815260200190815260200160002060006101000a81549073ffffffffffffffffffffffffffffffffffffffff021916905581600073ffffffffffffffffffffffffffffffffffffffff168273ffffffffffffffffffffffffffffffffffffffff167fddf252ad1be2c89b69c2b068fc378daa952ba7f163c4a11628f55a4df523b3ef60405160405180910390a4611abe8160008460016114f2565b5050565b6000808273ffffffffffffffffffffffffffffffffffffffff163b119050919050565b606060006001611af4846120dc565b01905060008167ffffffffffffffff811115611b1357611b12612658565b5b6040519080825280601f01601f191660200182016040528015611b455781602001600182028036833780820191505090505b509050600082602001820190505b600115611ba8578080600190039150507f3031323334353637383961626364656600000000000000000000000000000000600a86061a8153600a8581611b9c57611b9b6134b1565b5b04945060008503611b53575b819350505050919050565b600073ffffffffffffffffffffffffffffffffffffffff168273ffffffffffffffffffffffffffffffffffffffff1603611c22576040517f08c379a0000000000000000000000000000000000000000000000000000000008152600401611c199061352c565b60405180910390fd5b611c2b8161149f565b15611c6b576040517f08c379a0000000000000000000000000000000000000000000000000000000008152600401611c6290613598565b60405180910390fd5b611c796000838360016114e0565b611c828161149f565b15611cc2576040517f08c379a0000000000000000000000000000000000000000000000000000000008152600401611cb990613598565b60405180910390fd5b6001600360008473ffffffffffffffffffffffffffffffffffffffff1673ffffffffffffffffffffffffffffffffffffffff16815260200190815260200160002060008282540192505081905550816002600083815260200190815260200160002060006101000a81548173ffffffffffffffffffffffffffffffffffffffff021916908373ffffffffffffffffffffffffffffffffffffffff160217905550808273ffffffffffffffffffffffffffffffffffffffff16600073ffffffffffffffffffffffffffffffffffffffff167fddf252ad1be2c89b69c2b068fc378daa952ba7f163c4a11628f55a4df523b3ef60405160405180910390a4611dcc6000838360016114f2565b5050565b50505050565b6008805490506009600083815260200190815260200160002081905550600881908060018154018082558091505060019003906000526020600020016000909190919091505550565b60006001611e2c8461083f565b611e3691906135e7565b9050600060076000848152602001908152602001600020549050818114611f1b576000600660008673ffffffffffffffffffffffffffffffffffffffff1673ffffffffffffffffffffffffffffffffffffffff168152602001908152602001600020600084815260200190815260200160002054905080600660008773ffffffffffffffffffffffffffffffffffffffff1673ffffffffffffffffffffffffffffffffffffffff168152602001908152602001600020600084815260200190815260200160002081905550816007600083815260200190815260200160002081905550505b6007600084815260200190815260200160002060009055600660008573ffffffffffffffffffffffffffffffffffffffff1673ffffffffffffffffffffffffffffffffffffffff16815260200190815260200160002060008381526020019081526020016000206000905550505050565b60006001600880549050611fa091906135e7565b9050600060096000848152602001908152602001600020549050600060088381548110611fd057611fcf612c7d565b5b906000526020600020015490508060088381548110611ff257611ff1612c7d565b5b9060005260206000200181905550816009600083815260200190815260200160002081905550600960008581526020019081526020016000206000905560088054806120415761204061361b565b5b6001900381819060005260206000200160009055905550505050565b60006120688361083f565b905081600660008573ffffffffffffffffffffffffffffffffffffffff1673ffffffffffffffffffffffffffffffffffffffff168152602001908152602001600020600083815260200190815260200160002081905550806007600084815260200190815260200160002081905550505050565b600080600090507a184f03e93ff9f4daa797ed6e38ed64bf6a1f010000000000000000831061213a577a184f03e93ff9f4daa797ed6e38ed64bf6a1f01000000000000000083816121305761212f6134b1565b5b0492506040810190505b6d04ee2d6d415b85acef81000000008310612177576d04ee2d6d415b85acef8100000000838161216d5761216c6134b1565b5b0492506020810190505b662386f26fc1000083106121a657662386f26fc10000838161219c5761219b6134b1565b5b0492506010810190505b6305f5e10083106121cf576305f5e10083816121c5576121c46134b1565b5b0492506008810190505b61271083106121f45761271083816121ea576121e96134b1565b5b0492506004810190505b60648310612217576064838161220d5761220c6134b1565b5b0492506002810190505b600a8310612226576001810190505b80915050919050565b50805461223b90612972565b6000825580601f1061224d575061226c565b601f01602090049060005260206000209081019061226b919061226f565b5b50565b5b80821115612288576000816000905550600101612270565b5090565b6000604051905090565b600080fd5b600080fd5b60007fffffffff0000000000000000000000000000000000000000000000000000000082169050919050565b6122d5816122a0565b81146122e057600080fd5b50565b6000813590506122f2816122cc565b92915050565b60006020828403121561230e5761230d612296565b5b600061231c848285016122e3565b91505092915050565b60008115159050919050565b61233a81612325565b82525050565b60006020820190506123556000830184612331565b92915050565b600081519050919050565b600082825260208201905092915050565b60005b8381101561239557808201518184015260208101905061237a565b60008484015250505050565b6000601f19601f8301169050919050565b60006123bd8261235b565b6123c78185612366565b93506123d7818560208601612377565b6123e0816123a1565b840191505092915050565b6000602082019050818103600083015261240581846123b2565b905092915050565b6000819050919050565b6124208161240d565b811461242b57600080fd5b50565b60008135905061243d81612417565b92915050565b60006020828403121561245957612458612296565b5b60006124678482850161242e565b91505092915050565b600073ffffffffffffffffffffffffffffffffffffffff82169050919050565b600061249b82612470565b9050919050565b6124ab81612490565b82525050565b60006020820190506124c660008301846124a2565b92915050565b6124d581612490565b81146124e057600080fd5b50565b6000813590506124f2816124cc565b92915050565b6000806040838503121561250f5761250e612296565b5b600061251d858286016124e3565b925050602061252e8582860161242e565b9150509250929050565b6125418161240d565b82525050565b600060208201905061255c6000830184612538565b92915050565b60008060006060848603121561257b5761257a612296565b5b6000612589868287016124e3565b935050602061259a868287016124e3565b92505060406125ab8682870161242e565b9150509250925092565b6000602082840312156125cb576125ca612296565b5b60006125d9848285016124e3565b91505092915050565b6125eb81612325565b81146125f657600080fd5b50565b600081359050612608816125e2565b92915050565b6000806040838503121561262557612624612296565b5b6000612633858286016124e3565b9250506020612644858286016125f9565b9150509250929050565b600080fd5b600080fd5b7f4e487b7100000000000000000000000000000000000000000000000000000000600052604160045260246000fd5b612690826123a1565b810181811067ffffffffffffffff821117156126af576126ae612658565b5b80604052505050565b60006126c261228c565b90506126ce8282612687565b919050565b600067ffffffffffffffff8211156126ee576126ed612658565b5b6126f7826123a1565b9050602081019050919050565b82818337600083830152505050565b6000612726612721846126d3565b6126b8565b90508281526020810184848401111561274257612741612653565b5b61274d848285612704565b509392505050565b600082601f83011261276a5761276961264e565b5b813561277a848260208601612713565b91505092915050565b6000806000806080858703121561279d5761279c612296565b5b60006127ab878288016124e3565b94505060206127bc878288016124e3565b93505060406127cd8782880161242e565b925050606085013567ffffffffffffffff8111156127ee576127ed61229b565b5b6127fa87828801612755565b91505092959194509250565b600067ffffffffffffffff82111561282157612820612658565b5b61282a826123a1565b9050602081019050919050565b600061284a61284584612806565b6126b8565b90508281526020810184848401111561286657612865612653565b5b612871848285612704565b509392505050565b600082601f83011261288e5761288d61264e565b5b813561289e848260208601612837565b91505092915050565b600080604083850312156128be576128bd612296565b5b60006128cc858286016124e3565b925050602083013567ffffffffffffffff8111156128ed576128ec61229b565b5b6128f985828601612879565b9150509250929050565b6000806040838503121561291a57612919612296565b5b6000612928858286016124e3565b9250506020612939858286016124e3565b9150509250929050565b7f4e487b7100000000000000000000000000000000000000000000000000000000600052602260045260246000fd5b6000600282049050600182168061298a57607f821691505b60208210810361299d5761299c612943565b5b50919050565b7f4552433732313a20617070726f76616c20746f2063757272656e74206f776e6560008201527f7200000000000000000000000000000000000000000000000000000000000000602082015250565b60006129ff602183612366565b9150612a0a826129a3565b604082019050919050565b60006020820190508181036000830152612a2e816129f2565b9050919050565b7f4552433732313a20617070726f76652063616c6c6572206973206e6f7420746f60008201527f6b656e206f776e6572206f7220617070726f76656420666f7220616c6c000000602082015250565b6000612a91603d83612366565b9150612a9c82612a35565b604082019050919050565b60006020820190508181036000830152612ac081612a84565b9050919050565b7f4552433732313a2063616c6c6572206973206e6f7420746f6b656e206f776e6560008201527f72206f7220617070726f76656400000000000000000000000000000000000000602082015250565b6000612b23602d83612366565b9150612b2e82612ac7565b604082019050919050565b60006020820190508181036000830152612b5281612b16565b9050919050565b7f455243373231456e756d657261626c653a206f776e657220696e646578206f7560008201527f74206f6620626f756e6473000000000000000000000000000000000000000000602082015250565b6000612bb5602b83612366565b9150612bc082612b59565b604082019050919050565b60006020820190508181036000830152612be481612ba8565b9050919050565b7f455243373231456e756d657261626c653a20676c6f62616c20696e646578206f60008201527f7574206f6620626f756e64730000000000000000000000000000000000000000602082015250565b6000612c47602c83612366565b9150612c5282612beb565b604082019050919050565b60006020820190508181036000830152612c7681612c3a565b9050919050565b7f4e487b7100000000000000000000000000000000000000000000000000000000600052603260045260246000fd5b7f4552433732313a20696e76616c696420746f6b656e2049440000000000000000600082015250565b6000612ce2601883612366565b9150612ced82612cac565b602082019050919050565b60006020820190508181036000830152612d1181612cd5565b9050919050565b7f4552433732313a2061646472657373207a65726f206973206e6f74206120766160008201527f6c6964206f776e65720000000000000000000000000000000000000000000000602082015250565b6000612d74602983612366565b9150612d7f82612d18565b604082019050919050565b60006020820190508181036000830152612da381612d67565b9050919050565b7f4552433732313a207472616e736665722066726f6d20696e636f72726563742060008201527f6f776e6572000000000000000000000000000000000000000000000000000000602082015250565b6000612e06602583612366565b9150612e1182612daa565b604082019050919050565b60006020820190508181036000830152612e3581612df9565b9050919050565b7f4552433732313a207472616e7366657220746f20746865207a65726f2061646460008201527f7265737300000000000000000000000000000000000000000000000000000000602082015250565b6000612e98602483612366565b9150612ea382612e3c565b604082019050919050565b60006020820190508181036000830152612ec781612e8b565b9050919050565b7f4552433732313a20617070726f766520746f2063616c6c657200000000000000600082015250565b6000612f04601983612366565b9150612f0f82612ece565b602082019050919050565b60006020820190508181036000830152612f3381612ef7565b9050919050565b7f4552433732313a207472616e7366657220746f206e6f6e20455243373231526560008201527f63656976657220696d706c656d656e7465720000000000000000000000000000602082015250565b6000612f96603283612366565b9150612fa182612f3a565b604082019050919050565b60006020820190508181036000830152612fc581612f89565b9050919050565b600081905092915050565b6000612fe28261235b565b612fec8185612fcc565b9350612ffc818560208601612377565b80840191505092915050565b60006130148285612fd7565b91506130208284612fd7565b91508190509392505050565b7f45524337323155524953746f726167653a2055524920736574206f66206e6f6e60008201527f6578697374656e7420746f6b656e000000000000000000000000000000000000602082015250565b6000613088602e83612366565b91506130938261302c565b604082019050919050565b600060208201905081810360008301526130b78161307b565b9050919050565b60008190508160005260206000209050919050565b60006020601f8301049050919050565b600082821b905092915050565b6000600883026131207fffffffffffffffffffffffffffffffffffffffffffffffffffffffffffffffff826130e3565b61312a86836130e3565b95508019841693508086168417925050509392505050565b6000819050919050565b600061316761316261315d8461240d565b613142565b61240d565b9050919050565b6000819050919050565b6131818361314c565b61319561318d8261316e565b8484546130f0565b825550505050565b600090565b6131aa61319d565b6131b5818484613178565b505050565b5b818110156131d9576131ce6000826131a2565b6001810190506131bb565b5050565b601f82111561321e576131ef816130be565b6131f8846130d3565b81016020851015613207578190505b61321b613213856130d3565b8301826131ba565b50505b505050565b600082821c905092915050565b600061324160001984600802613223565b1980831691505092915050565b600061325a8383613230565b9150826002028217905092915050565b6132738261235b565b67ffffffffffffffff81111561328c5761328b612658565b5b6132968254612972565b6132a18282856131dd565b600060209050601f8311600181146132d457600084156132c2578287015190505b6132cc858261324e565b865550613334565b601f1984166132e2866130be565b60005b8281101561330a578489015182556001820191506020850194506020810190506132e5565b868310156133275784890151613323601f891682613230565b8355505b6001600288020188555050505b505050505050565b600081519050919050565b600082825260208201905092915050565b60006133638261333c565b61336d8185613347565b935061337d818560208601612377565b613386816123a1565b840191505092915050565b60006080820190506133a660008301876124a2565b6133b360208301866124a2565b6133c06040830185612538565b81810360608301526133d28184613358565b905095945050505050565b6000815190506133ec816122cc565b92915050565b60006020828403121561340857613407612296565b5b6000613416848285016133dd565b91505092915050565b7f455243373231456e756d657261626c653a20636f6e736563757469766520747260008201527f616e7366657273206e6f7420737570706f727465640000000000000000000000602082015250565b600061347b603583612366565b91506134868261341f565b604082019050919050565b600060208201905081810360008301526134aa8161346e565b9050919050565b7f4e487b7100000000000000000000000000000000000000000000000000000000600052601260045260246000fd5b7f4552433732313a206d696e7420746f20746865207a65726f2061646472657373600082015250565b6000613516602083612366565b9150613521826134e0565b602082019050919050565b6000602082019050818103600083015261354581613509565b9050919050565b7f4552433732313a20746f6b656e20616c7265616479206d696e74656400000000600082015250565b6000613582601c83612366565b915061358d8261354c565b602082019050919050565b600060208201905081810360008301526135b181613575565b9050919050565b7f4e487b7100000000000000000000000000000000000000000000000000000000600052601160045260246000fd5b60006135f28261240d565b91506135fd8361240d565b9250828203905081811115613615576136146135b8565b5b92915050565b7f4e487b7100000000000000000000000000000000000000000000000000000000600052603160045260246000fdfea2646970667358221220d1d9346e6221b6ce7e6bf5e48e839fe0873cf7873edcc16c873ee114c9c7f0df64736f6c63430008110033",
  "linkReferences": {},
  "deployedLinkReferences": {}
}