{
  "_format": "hh-sol-artifact-1",
  "contractName": "AnonCard",
  "sourceName": "contracts/AnonCard.sol",
  "abi": [
    {
      "inputs": [],
      "stateMutability": "nonpayable",
      "type": "constructor"
    },
    {
      "anonymous": false,
      "inputs": [
        {
          "indexed": true,
          "internalType": "address",
          "name": "owner",
          "type": "address"
        },
        {
          "indexed": true,
          "internalType": "address",
          "name": "approved",
          "type": "address"
        },
        {
          "indexed": true,
          "internalType": "uint256",
          "name": "tokenId",
          "type": "uint256"
        }
      ],
      "name": "Approval",
      "type": "event"
    },
    {
      "anonymous": false,
      "inputs": [
        {
          "indexed": true,
          "internalType": "address",
          "name": "owner",
          "type": "address"
        },
        {
          "indexed": true,
          "internalType": "address",
          "name": "operator",
          "type": "address"
        },
        {
          "indexed": false,
          "internalType": "bool",
          "name": "approved",
          "type": "bool"
        }
      ],
      "name": "ApprovalForAll",
      "type": "event"
    },
    {
      "anonymous": false,
      "inputs": [
        {
          "indexed": true,
          "internalType": "address",
          "name": "previousOwner",
          "type": "address"
        },
        {
          "indexed": true,
          "internalType": "address",
          "name": "newOwner",
          "type": "address"
        }
      ],
      "name": "OwnershipTransferred",
      "type": "event"
    },
    {
      "anonymous": false,
      "inputs": [
        {
          "indexed": true,
          "internalType": "address",
          "name": "from",
          "type": "address"
        },
        {
          "indexed": true,
          "internalType": "address",
          "name": "to",
          "type": "address"
        },
        {
          "indexed": true,
          "internalType": "uint256",
          "name": "tokenId",
          "type": "uint256"
        }
      ],
      "name": "Transfer",
      "type": "event"
    },
    {
      "inputs": [
        {
          "internalType": "address",
          "name": "to",
          "type": "address"
        },
        {
          "internalType": "uint256",
          "name": "tokenId",
          "type": "uint256"
        }
      ],
      "name": "approve",
      "outputs": [],
      "stateMutability": "nonpayable",
      "type": "function"
    },
    {
      "inputs": [
        {
          "internalType": "address",
          "name": "owner",
          "type": "address"
        }
      ],
      "name": "balanceOf",
      "outputs": [
        {
          "internalType": "uint256",
          "name": "",
          "type": "uint256"
        }
      ],
      "stateMutability": "view",
      "type": "function"
    },
    {
      "inputs": [
        {
          "internalType": "uint256",
          "name": "tokenId",
          "type": "uint256"
        }
      ],
      "name": "burn",
      "outputs": [],
      "stateMutability": "nonpayable",
      "type": "function"
    },
    {
      "inputs": [
        {
          "internalType": "uint256",
          "name": "tokenId",
          "type": "uint256"
        }
      ],
      "name": "getApproved",
      "outputs": [
        {
          "internalType": "address",
          "name": "",
          "type": "address"
        }
      ],
      "stateMutability": "view",
      "type": "function"
    },
    {
      "inputs": [
        {
          "internalType": "address",
          "name": "owner",
          "type": "address"
        },
        {
          "internalType": "address",
          "name": "operator",
          "type": "address"
        }
      ],
      "name": "isApprovedForAll",
      "outputs": [
        {
          "internalType": "bool",
          "name": "",
          "type": "bool"
        }
      ],
      "stateMutability": "view",
      "type": "function"
    },
    {
      "inputs": [],
      "name": "name",
      "outputs": [
        {
          "internalType": "string",
          "name": "",
          "type": "string"
        }
      ],
      "stateMutability": "view",
      "type": "function"
    },
    {
      "inputs": [],
      "name": "owner",
      "outputs": [
        {
          "internalType": "address",
          "name": "",
          "type": "address"
        }
      ],
      "stateMutability": "view",
      "type": "function"
    },
    {
      "inputs": [
        {
          "internalType": "uint256",
          "name": "tokenId",
          "type": "uint256"
        }
      ],
      "name": "ownerOf",
      "outputs": [
        {
          "internalType": "address",
          "name": "",
          "type": "address"
        }
      ],
      "stateMutability": "view",
      "type": "function"
    },
    {
      "inputs": [],
      "name": "renounceOwnership",
      "outputs": [],
      "stateMutability": "nonpayable",
      "type": "function"
    },
    {
      "inputs": [
        {
          "internalType": "address",
          "name": "to",
          "type": "address"
        },
        {
          "internalType": "string",
          "name": "uri",
          "type": "string"
        }
      ],
      "name": "safeMint",
      "outputs": [],
      "stateMutability": "nonpayable",
      "type": "function"
    },
    {
      "inputs": [
        {
          "internalType": "address",
          "name": "from",
          "type": "address"
        },
        {
          "internalType": "address",
          "name": "to",
          "type": "address"
        },
        {
          "internalType": "uint256",
          "name": "tokenId",
          "type": "uint256"
        }
      ],
      "name": "safeTransferFrom",
      "outputs": [],
      "stateMutability": "nonpayable",
      "type": "function"
    },
    {
      "inputs": [
        {
          "internalType": "address",
          "name": "from",
          "type": "address"
        },
        {
          "internalType": "address",
          "name": "to",
          "type": "address"
        },
        {
          "internalType": "uint256",
          "name": "tokenId",
          "type": "uint256"
        },
        {
          "internalType": "bytes",
          "name": "data",
          "type": "bytes"
        }
      ],
      "name": "safeTransferFrom",
      "outputs": [],
      "stateMutability": "nonpayable",
      "type": "function"
    },
    {
      "inputs": [
        {
          "internalType": "address",
          "name": "operator",
          "type": "address"
        },
        {
          "internalType": "bool",
          "name": "approved",
          "type": "bool"
        }
      ],
      "name": "setApprovalForAll",
      "outputs": [],
      "stateMutability": "nonpayable",
      "type": "function"
    },
    {
      "inputs": [
        {
          "internalType": "bytes4",
          "name": "interfaceId",
          "type": "bytes4"
        }
      ],
      "name": "supportsInterface",
      "outputs": [
        {
          "internalType": "bool",
          "name": "",
          "type": "bool"
        }
      ],
      "stateMutability": "view",
      "type": "function"
    },
    {
      "inputs": [],
      "name": "symbol",
      "outputs": [
        {
          "internalType": "string",
          "name": "",
          "type": "string"
        }
      ],
      "stateMutability": "view",
      "type": "function"
    },
    {
      "inputs": [
        {
          "internalType": "uint256",
          "name": "index",
          "type": "uint256"
        }
      ],
      "name": "tokenByIndex",
      "outputs": [
        {
          "internalType": "uint256",
          "name": "",
          "type": "uint256"
        }
      ],
      "stateMutability": "view",
      "type": "function"
    },
    {
      "inputs": [
        {
          "internalType": "address",
          "name": "owner",
          "type": "address"
        },
        {
          "internalType": "uint256",
          "name": "index",
          "type": "uint256"
        }
      ],
      "name": "tokenOfOwnerByIndex",
      "outputs": [
        {
          "internalType": "uint256",
          "name": "",
          "type": "uint256"
        }
      ],
      "stateMutability": "view",
      "type": "function"
    },
    {
      "inputs": [
        {
          "internalType": "uint256",
          "name": "tokenId",
          "type": "uint256"
        }
      ],
      "name": "tokenURI",
      "outputs": [
        {
          "internalType": "string",
          "name": "",
          "type": "string"
        }
      ],
      "stateMutability": "view",
      "type": "function"
    },
    {
      "inputs": [],
      "name": "totalSupply",
      "outputs": [
        {
          "internalType": "uint256",
          "name": "",
          "type": "uint256"
        }
      ],
      "stateMutability": "view",
      "type": "function"
    },
    {
      "inputs": [
        {
          "internalType": "address",
          "name": "from",
          "type": "address"
        },
        {
          "internalType": "address",
          "name": "to",
          "type": "address"
        },
        {
          "internalType": "uint256",
          "name": "tokenId",
          "type": "uint256"
        }
      ],
      "name": "transferFrom",
      "outputs": [],
      "stateMutability": "nonpayable",
      "type": "function"
    },
    {
      "inputs": [
        {
          "internalType": "address",
          "name": "newOwner",
          "type": "address"
        }
      ],
      "name": "transferOwnership",
      "outputs": [],
      "stateMutability": "nonpayable",
      "type": "function"
    }
  ],
  "bytecode": "0x60806040523480156200001157600080fd5b506040518060400160405280600881526020017f416e6f6e436172640000000000000000000000000000000000000000000000008152506040518060400160405280600881526020017f414e4f4e4341524400000000000000000000000000000000000000000000000081525081600090816200008f919062000412565b508060019081620000a1919062000412565b505050620000c4620000b8620000ca60201b60201c565b620000d260201b60201c565b620004f9565b600033905090565b6000600b60009054906101000a900473ffffffffffffffffffffffffffffffffffffffff16905081600b60006101000a81548173ffffffffffffffffffffffffffffffffffffffff021916908373ffffffffffffffffffffffffffffffffffffffff1602179055508173ffffffffffffffffffffffffffffffffffffffff168173ffffffffffffffffffffffffffffffffffffffff167f8be0079c531659141344cd1fd0a4f28419497f9722a3daafe3b4186f6b6457e060405160405180910390a35050565b600081519050919050565b7f4e487b7100000000000000000000000000000000000000000000000000000000600052604160045260246000fd5b7f4e487b7100000000000000000000000000000000000000000000000000000000600052602260045260246000fd5b600060028204905060018216806200021a57607f821691505b60208210810362000230576200022f620001d2565b5b50919050565b60008190508160005260206000209050919050565b60006020601f8301049050919050565b600082821b905092915050565b6000600883026200029a7fffffffffffffffffffffffffffffffffffffffffffffffffffffffffffffffff826200025b565b620002a686836200025b565b95508019841693508086168417925050509392505050565b6000819050919050565b6000819050919050565b6000620002f3620002ed620002e784620002be565b620002c8565b620002be565b9050919050565b6000819050919050565b6200030f83620002d2565b620003276200031e82620002fa565b84845462000268565b825550505050565b600090565b6200033e6200032f565b6200034b81848462000304565b505050565b5b8181101562000373576200036760008262000334565b60018101905062000351565b5050565b601f821115620003c2576200038c8162000236565b62000397846200024b565b81016020851015620003a7578190505b620003bf620003b6856200024b565b83018262000350565b50505b505050565b600082821c905092915050565b6000620003e760001984600802620003c7565b1980831691505092915050565b6000620004028383620003d4565b9150826002028217905092915050565b6200041d8262000198565b67ffffffffffffffff811115620004395762000438620001a3565b5b62000445825462000201565b6200045282828562000377565b600060209050601f8311600181146200048a576000841562000475578287015190505b620004818582620003f4565b865550620004f1565b601f1984166200049a8662000236565b60005b82811015620004c4578489015182556001820191506020850194506020810190506200049d565b86831015620004e45784890151620004e0601f891682620003d4565b8355505b6001600288020188555050505b505050505050565b613a3b80620005096000396000f3fe608060405234801561001057600080fd5b50600436106101375760003560e01c80636352211e116100b8578063a22cb4651161007c578063a22cb4651461034e578063b88d4fde1461036a578063c87b56dd14610386578063d204c45e146103b6578063e985e9c5146103d2578063f2fde38b1461040257610137565b80636352211e146102a857806370a08231146102d8578063715018a6146103085780638da5cb5b1461031257806395d89b411461033057610137565b806323b872dd116100ff57806323b872dd146101f45780632f745c591461021057806342842e0e1461024057806342966c681461025c5780634f6ccce71461027857610137565b806301ffc9a71461013c57806306fdde031461016c578063081812fc1461018a578063095ea7b3146101ba57806318160ddd146101d6575b600080fd5b61015660048036038101906101519190612573565b61041e565b60405161016391906125bb565b60405180910390f35b610174610430565b6040516101819190612666565b60405180910390f35b6101a4600480360381019061019f91906126be565b6104c2565b6040516101b1919061272c565b60405180910390f35b6101d460048036038101906101cf9190612773565b610508565b005b6101de61061f565b6040516101eb91906127c2565b60405180910390f35b61020e600480360381019061020991906127dd565b61062c565b005b61022a60048036038101906102259190612773565b61068c565b60405161023791906127c2565b60405180910390f35b61025a600480360381019061025591906127dd565b610731565b005b610276600480360381019061027191906126be565b610751565b005b610292600480360381019061028d91906126be565b6107ad565b60405161029f91906127c2565b60405180910390f35b6102c260048036038101906102bd91906126be565b61081e565b6040516102cf919061272c565b60405180910390f35b6102f260048036038101906102ed9190612830565b6108a4565b6040516102ff91906127c2565b60405180910390f35b61031061095b565b005b61031a61096f565b604051610327919061272c565b60405180910390f35b610338610999565b6040516103459190612666565b60405180910390f35b61036860048036038101906103639190612889565b610a2b565b005b610384600480360381019061037f91906129fe565b610a41565b005b6103a0600480360381019061039b91906126be565b610aa3565b6040516103ad9190612666565b60405180910390f35b6103d060048036038101906103cb9190612b22565b610ab5565b005b6103ec60048036038101906103e79190612b7e565b610aee565b6040516103f991906125bb565b60405180910390f35b61041c60048036038101906104179190612830565b610b82565b005b600061042982610c05565b9050919050565b60606000805461043f90612bed565b80601f016020809104026020016040519081016040528092919081815260200182805461046b90612bed565b80156104b85780601f1061048d576101008083540402835291602001916104b8565b820191906000526020600020905b81548152906001019060200180831161049b57829003601f168201915b5050505050905090565b60006104cd82610c7f565b6004600083815260200190815260200160002060009054906101000a900473ffffffffffffffffffffffffffffffffffffffff169050919050565b60006105138261081e565b90508073ffffffffffffffffffffffffffffffffffffffff168373ffffffffffffffffffffffffffffffffffffffff1603610583576040517f08c379a000000000000000000000000000000000000000000000000000000000815260040161057a90612c90565b60405180910390fd5b8073ffffffffffffffffffffffffffffffffffffffff166105a2610cca565b73ffffffffffffffffffffffffffffffffffffffff1614806105d157506105d0816105cb610cca565b610aee565b5b610610576040517f08c379a000000000000000000000000000000000000000000000000000000000815260040161060790612d22565b60405180910390fd5b61061a8383610cd2565b505050565b6000600880549050905090565b61063d610637610cca565b82610d8b565b61067c576040517f08c379a000000000000000000000000000000000000000000000000000000000815260040161067390612db4565b60405180910390fd5b610687838383610e20565b505050565b6000610697836108a4565b82106106d8576040517f08c379a00000000000000000000000000000000000000000000000000000000081526004016106cf90612e46565b60405180910390fd5b600660008473ffffffffffffffffffffffffffffffffffffffff1673ffffffffffffffffffffffffffffffffffffffff168152602001908152602001600020600083815260200190815260200160002054905092915050565b61074c83838360405180602001604052806000815250610a41565b505050565b61076261075c610cca565b82610d8b565b6107a1576040517f08c379a000000000000000000000000000000000000000000000000000000000815260040161079890612db4565b60405180910390fd5b6107aa81611119565b50565b60006107b761061f565b82106107f8576040517f08c379a00000000000000000000000000000000000000000000000000000000081526004016107ef90612ed8565b60405180910390fd5b6008828154811061080c5761080b612ef8565b5b90600052602060002001549050919050565b60008061082a83611125565b9050600073ffffffffffffffffffffffffffffffffffffffff168173ffffffffffffffffffffffffffffffffffffffff160361089b576040517f08c379a000000000000000000000000000000000000000000000000000000000815260040161089290612f73565b60405180910390fd5b80915050919050565b60008073ffffffffffffffffffffffffffffffffffffffff168273ffffffffffffffffffffffffffffffffffffffff1603610914576040517f08c379a000000000000000000000000000000000000000000000000000000000815260040161090b90613005565b60405180910390fd5b600360008373ffffffffffffffffffffffffffffffffffffffff1673ffffffffffffffffffffffffffffffffffffffff168152602001908152602001600020549050919050565b610963611162565b61096d60006111e0565b565b6000600b60009054906101000a900473ffffffffffffffffffffffffffffffffffffffff16905090565b6060600180546109a890612bed565b80601f01602080910402602001604051908101604052809291908181526020018280546109d490612bed565b8015610a215780601f106109f657610100808354040283529160200191610a21565b820191906000526020600020905b815481529060010190602001808311610a0457829003601f168201915b5050505050905090565b610a3d610a36610cca565b83836112a6565b5050565b610a52610a4c610cca565b83610d8b565b610a91576040517f08c379a0000000000000000000000000000000000000000000000000000000008152600401610a8890612db4565b60405180910390fd5b610a9d84848484611412565b50505050565b6060610aae8261146e565b9050919050565b610abd611162565b6000610ac9600c611580565b9050610ad5600c61158e565b610adf83826115a4565b610ae981836115c2565b505050565b6000600560008473ffffffffffffffffffffffffffffffffffffffff1673ffffffffffffffffffffffffffffffffffffffff16815260200190815260200160002060008373ffffffffffffffffffffffffffffffffffffffff1673ffffffffffffffffffffffffffffffffffffffff16815260200190815260200160002060009054906101000a900460ff16905092915050565b610b8a611162565b600073ffffffffffffffffffffffffffffffffffffffff168173ffffffffffffffffffffffffffffffffffffffff1603610bf9576040517f08c379a0000000000000000000000000000000000000000000000000000000008152600401610bf090613097565b60405180910390fd5b610c02816111e0565b50565b60007f780e9d63000000000000000000000000000000000000000000000000000000007bffffffffffffffffffffffffffffffffffffffffffffffffffffffff1916827bffffffffffffffffffffffffffffffffffffffffffffffffffffffff19161480610c785750610c778261162f565b5b9050919050565b610c8881611711565b610cc7576040517f08c379a0000000000000000000000000000000000000000000000000000000008152600401610cbe90612f73565b60405180910390fd5b50565b600033905090565b816004600083815260200190815260200160002060006101000a81548173ffffffffffffffffffffffffffffffffffffffff021916908373ffffffffffffffffffffffffffffffffffffffff160217905550808273ffffffffffffffffffffffffffffffffffffffff16610d458361081e565b73ffffffffffffffffffffffffffffffffffffffff167f8c5be1e5ebec7d5bd14f71427d1e84f3dd0314c0f7b2291e5b200ac8c7c3b92560405160405180910390a45050565b600080610d978361081e565b90508073ffffffffffffffffffffffffffffffffffffffff168473ffffffffffffffffffffffffffffffffffffffff161480610dd95750610dd88185610aee565b5b80610e1757508373ffffffffffffffffffffffffffffffffffffffff16610dff846104c2565b73ffffffffffffffffffffffffffffffffffffffff16145b91505092915050565b8273ffffffffffffffffffffffffffffffffffffffff16610e408261081e565b73ffffffffffffffffffffffffffffffffffffffff1614610e96576040517f08c379a0000000000000000000000000000000000000000000000000000000008152600401610e8d90613129565b60405180910390fd5b600073ffffffffffffffffffffffffffffffffffffffff168273ffffffffffffffffffffffffffffffffffffffff1603610f05576040517f08c379a0000000000000000000000000000000000000000000000000000000008152600401610efc906131bb565b60405180910390fd5b610f128383836001611752565b8273ffffffffffffffffffffffffffffffffffffffff16610f328261081e565b73ffffffffffffffffffffffffffffffffffffffff1614610f88576040517f08c379a0000000000000000000000000000000000000000000000000000000008152600401610f7f90613129565b60405180910390fd5b6004600082815260200190815260200160002060006101000a81549073ffffffffffffffffffffffffffffffffffffffff02191690556001600360008573ffffffffffffffffffffffffffffffffffffffff1673ffffffffffffffffffffffffffffffffffffffff168152602001908152602001600020600082825403925050819055506001600360008473ffffffffffffffffffffffffffffffffffffffff1673ffffffffffffffffffffffffffffffffffffffff16815260200190815260200160002060008282540192505081905550816002600083815260200190815260200160002060006101000a81548173ffffffffffffffffffffffffffffffffffffffff021916908373ffffffffffffffffffffffffffffffffffffffff160217905550808273ffffffffffffffffffffffffffffffffffffffff168473ffffffffffffffffffffffffffffffffffffffff167fddf252ad1be2c89b69c2b068fc378daa952ba7f163c4a11628f55a4df523b3ef60405160405180910390a46111148383836001611764565b505050565b6111228161176a565b50565b60006002600083815260200190815260200160002060009054906101000a900473ffffffffffffffffffffffffffffffffffffffff169050919050565b61116a610cca565b73ffffffffffffffffffffffffffffffffffffffff1661118861096f565b73ffffffffffffffffffffffffffffffffffffffff16146111de576040517f08c379a00000000000000000000000000000000000000000000000000000000081526004016111d590613227565b60405180910390fd5b565b6000600b60009054906101000a900473ffffffffffffffffffffffffffffffffffffffff16905081600b60006101000a81548173ffffffffffffffffffffffffffffffffffffffff021916908373ffffffffffffffffffffffffffffffffffffffff1602179055508173ffffffffffffffffffffffffffffffffffffffff168173ffffffffffffffffffffffffffffffffffffffff167f8be0079c531659141344cd1fd0a4f28419497f9722a3daafe3b4186f6b6457e060405160405180910390a35050565b8173ffffffffffffffffffffffffffffffffffffffff168373ffffffffffffffffffffffffffffffffffffffff1603611314576040517f08c379a000000000000000000000000000000000000000000000000000000000815260040161130b90613293565b60405180910390fd5b80600560008573ffffffffffffffffffffffffffffffffffffffff1673ffffffffffffffffffffffffffffffffffffffff16815260200190815260200160002060008473ffffffffffffffffffffffffffffffffffffffff1673ffffffffffffffffffffffffffffffffffffffff16815260200190815260200160002060006101000a81548160ff0219169083151502179055508173ffffffffffffffffffffffffffffffffffffffff168373ffffffffffffffffffffffffffffffffffffffff167f17307eab39ab6107e8899845ad3d59bd9653f200f220920489ca2b5937696c318360405161140591906125bb565b60405180910390a3505050565b61141d848484610e20565b611429848484846117bd565b611468576040517f08c379a000000000000000000000000000000000000000000000000000000000815260040161145f90613325565b60405180910390fd5b50505050565b606061147982610c7f565b6000600a6000848152602001908152602001600020805461149990612bed565b80601f01602080910402602001604051908101604052809291908181526020018280546114c590612bed565b80156115125780601f106114e757610100808354040283529160200191611512565b820191906000526020600020905b8154815290600101906020018083116114f557829003601f168201915b505050505090506000611523611944565b9050600081510361153857819250505061157b565b60008251111561156d578082604051602001611555929190613381565b6040516020818303038152906040529250505061157b565b61157684611964565b925050505b919050565b600081600001549050919050565b6001816000016000828254019250508190555050565b6115be8282604051806020016040528060008152506119cc565b5050565b6115cb82611711565b61160a576040517f08c379a000000000000000000000000000000000000000000000000000000000815260040161160190613417565b60405180910390fd5b80600a6000848152602001908152602001600020908161162a91906135e3565b505050565b60007f80ac58cd000000000000000000000000000000000000000000000000000000007bffffffffffffffffffffffffffffffffffffffffffffffffffffffff1916827bffffffffffffffffffffffffffffffffffffffffffffffffffffffff191614806116fa57507f5b5e139f000000000000000000000000000000000000000000000000000000007bffffffffffffffffffffffffffffffffffffffffffffffffffffffff1916827bffffffffffffffffffffffffffffffffffffffffffffffffffffffff1916145b8061170a575061170982611a27565b5b9050919050565b60008073ffffffffffffffffffffffffffffffffffffffff1661173383611125565b73ffffffffffffffffffffffffffffffffffffffff1614159050919050565b61175e84848484611a91565b50505050565b50505050565b61177381611bef565b6000600a6000838152602001908152602001600020805461179390612bed565b9050146117ba57600a600082815260200190815260200160002060006117b991906124aa565b5b50565b60006117de8473ffffffffffffffffffffffffffffffffffffffff16611d3d565b15611937578373ffffffffffffffffffffffffffffffffffffffff1663150b7a02611807610cca565b8786866040518563ffffffff1660e01b8152600401611829949392919061370a565b6020604051808303816000875af192505050801561186557506040513d601f19601f82011682018060405250810190611862919061376b565b60015b6118e7573d8060008114611895576040519150601f19603f3d011682016040523d82523d6000602084013e61189a565b606091505b5060008151036118df576040517f08c379a00000000000000000000000000000000000000000000000000000000081526004016118d690613325565b60405180910390fd5b805181602001fd5b63150b7a0260e01b7bffffffffffffffffffffffffffffffffffffffffffffffffffffffff1916817bffffffffffffffffffffffffffffffffffffffffffffffffffffffff19161491505061193c565b600190505b949350505050565b60606040518060800160405280604281526020016139c460429139905090565b606061196f82610c7f565b6000611979611944565b9050600081511161199957604051806020016040528060008152506119c4565b806119a384611d60565b6040516020016119b4929190613381565b6040516020818303038152906040525b915050919050565b6119d68383611e2e565b6119e360008484846117bd565b611a22576040517f08c379a0000000000000000000000000000000000000000000000000000000008152600401611a1990613325565b60405180910390fd5b505050565b60007f01ffc9a7000000000000000000000000000000000000000000000000000000007bffffffffffffffffffffffffffffffffffffffffffffffffffffffff1916827bffffffffffffffffffffffffffffffffffffffffffffffffffffffff1916149050919050565b611a9d8484848461204b565b6001811115611ae1576040517f08c379a0000000000000000000000000000000000000000000000000000000008152600401611ad89061380a565b60405180910390fd5b6000829050600073ffffffffffffffffffffffffffffffffffffffff168573ffffffffffffffffffffffffffffffffffffffff1603611b2857611b2381612051565b611b67565b8373ffffffffffffffffffffffffffffffffffffffff168573ffffffffffffffffffffffffffffffffffffffff1614611b6657611b65858261209a565b5b5b600073ffffffffffffffffffffffffffffffffffffffff168473ffffffffffffffffffffffffffffffffffffffff1603611ba957611ba481612207565b611be8565b8473ffffffffffffffffffffffffffffffffffffffff168473ffffffffffffffffffffffffffffffffffffffff1614611be757611be684826122d8565b5b5b5050505050565b6000611bfa8261081e565b9050611c0a816000846001611752565b611c138261081e565b90506004600083815260200190815260200160002060006101000a81549073ffffffffffffffffffffffffffffffffffffffff02191690556001600360008373ffffffffffffffffffffffffffffffffffffffff1673ffffffffffffffffffffffffffffffffffffffff168152602001908152602001600020600082825403925050819055506002600083815260200190815260200160002060006101000a81549073ffffffffffffffffffffffffffffffffffffffff021916905581600073ffffffffffffffffffffffffffffffffffffffff168273ffffffffffffffffffffffffffffffffffffffff167fddf252ad1be2c89b69c2b068fc378daa952ba7f163c4a11628f55a4df523b3ef60405160405180910390a4611d39816000846001611764565b5050565b6000808273ffffffffffffffffffffffffffffffffffffffff163b119050919050565b606060006001611d6f84612357565b01905060008167ffffffffffffffff811115611d8e57611d8d6128d3565b5b6040519080825280601f01601f191660200182016040528015611dc05781602001600182028036833780820191505090505b509050600082602001820190505b600115611e23578080600190039150507f3031323334353637383961626364656600000000000000000000000000000000600a86061a8153600a8581611e1757611e1661382a565b5b04945060008503611dce575b819350505050919050565b600073ffffffffffffffffffffffffffffffffffffffff168273ffffffffffffffffffffffffffffffffffffffff1603611e9d576040517f08c379a0000000000000000000000000000000000000000000000000000000008152600401611e94906138a5565b60405180910390fd5b611ea681611711565b15611ee6576040517f08c379a0000000000000000000000000000000000000000000000000000000008152600401611edd90613911565b60405180910390fd5b611ef4600083836001611752565b611efd81611711565b15611f3d576040517f08c379a0000000000000000000000000000000000000000000000000000000008152600401611f3490613911565b60405180910390fd5b6001600360008473ffffffffffffffffffffffffffffffffffffffff1673ffffffffffffffffffffffffffffffffffffffff16815260200190815260200160002060008282540192505081905550816002600083815260200190815260200160002060006101000a81548173ffffffffffffffffffffffffffffffffffffffff021916908373ffffffffffffffffffffffffffffffffffffffff160217905550808273ffffffffffffffffffffffffffffffffffffffff16600073ffffffffffffffffffffffffffffffffffffffff167fddf252ad1be2c89b69c2b068fc378daa952ba7f163c4a11628f55a4df523b3ef60405160405180910390a4612047600083836001611764565b5050565b50505050565b6008805490506009600083815260200190815260200160002081905550600881908060018154018082558091505060019003906000526020600020016000909190919091505550565b600060016120a7846108a4565b6120b19190613960565b9050600060076000848152602001908152602001600020549050818114612196576000600660008673ffffffffffffffffffffffffffffffffffffffff1673ffffffffffffffffffffffffffffffffffffffff168152602001908152602001600020600084815260200190815260200160002054905080600660008773ffffffffffffffffffffffffffffffffffffffff1673ffffffffffffffffffffffffffffffffffffffff168152602001908152602001600020600084815260200190815260200160002081905550816007600083815260200190815260200160002081905550505b6007600084815260200190815260200160002060009055600660008573ffffffffffffffffffffffffffffffffffffffff1673ffffffffffffffffffffffffffffffffffffffff16815260200190815260200160002060008381526020019081526020016000206000905550505050565b6000600160088054905061221b9190613960565b905060006009600084815260200190815260200160002054905060006008838154811061224b5761224a612ef8565b5b90600052602060002001549050806008838154811061226d5761226c612ef8565b5b9060005260206000200181905550816009600083815260200190815260200160002081905550600960008581526020019081526020016000206000905560088054806122bc576122bb613994565b5b6001900381819060005260206000200160009055905550505050565b60006122e3836108a4565b905081600660008573ffffffffffffffffffffffffffffffffffffffff1673ffffffffffffffffffffffffffffffffffffffff168152602001908152602001600020600083815260200190815260200160002081905550806007600084815260200190815260200160002081905550505050565b600080600090507a184f03e93ff9f4daa797ed6e38ed64bf6a1f01000000000000000083106123b5577a184f03e93ff9f4daa797ed6e38ed64bf6a1f01000000000000000083816123ab576123aa61382a565b5b0492506040810190505b6d04ee2d6d415b85acef810000000083106123f2576d04ee2d6d415b85acef810000000083816123e8576123e761382a565b5b0492506020810190505b662386f26fc10000831061242157662386f26fc1000083816124175761241661382a565b5b0492506010810190505b6305f5e100831061244a576305f5e10083816124405761243f61382a565b5b0492506008810190505b612710831061246f5761271083816124655761246461382a565b5b0492506004810190505b6064831061249257606483816124885761248761382a565b5b0492506002810190505b600a83106124a1576001810190505b80915050919050565b5080546124b690612bed565b6000825580601f106124c857506124e7565b601f0160209004906000526020600020908101906124e691906124ea565b5b50565b5b808211156125035760008160009055506001016124eb565b5090565b6000604051905090565b600080fd5b600080fd5b60007fffffffff0000000000000000000000000000000000000000000000000000000082169050919050565b6125508161251b565b811461255b57600080fd5b50565b60008135905061256d81612547565b92915050565b60006020828403121561258957612588612511565b5b60006125978482850161255e565b91505092915050565b60008115159050919050565b6125b5816125a0565b82525050565b60006020820190506125d060008301846125ac565b92915050565b600081519050919050565b600082825260208201905092915050565b60005b838110156126105780820151818401526020810190506125f5565b60008484015250505050565b6000601f19601f8301169050919050565b6000612638826125d6565b61264281856125e1565b93506126528185602086016125f2565b61265b8161261c565b840191505092915050565b60006020820190508181036000830152612680818461262d565b905092915050565b6000819050919050565b61269b81612688565b81146126a657600080fd5b50565b6000813590506126b881612692565b92915050565b6000602082840312156126d4576126d3612511565b5b60006126e2848285016126a9565b91505092915050565b600073ffffffffffffffffffffffffffffffffffffffff82169050919050565b6000612716826126eb565b9050919050565b6127268161270b565b82525050565b6000602082019050612741600083018461271d565b92915050565b6127508161270b565b811461275b57600080fd5b50565b60008135905061276d81612747565b92915050565b6000806040838503121561278a57612789612511565b5b60006127988582860161275e565b92505060206127a9858286016126a9565b9150509250929050565b6127bc81612688565b82525050565b60006020820190506127d760008301846127b3565b92915050565b6000806000606084860312156127f6576127f5612511565b5b60006128048682870161275e565b93505060206128158682870161275e565b9250506040612826868287016126a9565b9150509250925092565b60006020828403121561284657612845612511565b5b60006128548482850161275e565b91505092915050565b612866816125a0565b811461287157600080fd5b50565b6000813590506128838161285d565b92915050565b600080604083850312156128a05761289f612511565b5b60006128ae8582860161275e565b92505060206128bf85828601612874565b9150509250929050565b600080fd5b600080fd5b7f4e487b7100000000000000000000000000000000000000000000000000000000600052604160045260246000fd5b61290b8261261c565b810181811067ffffffffffffffff8211171561292a576129296128d3565b5b80604052505050565b600061293d612507565b90506129498282612902565b919050565b600067ffffffffffffffff821115612969576129686128d3565b5b6129728261261c565b9050602081019050919050565b82818337600083830152505050565b60006129a161299c8461294e565b612933565b9050828152602081018484840111156129bd576129bc6128ce565b5b6129c884828561297f565b509392505050565b600082601f8301126129e5576129e46128c9565b5b81356129f584826020860161298e565b91505092915050565b60008060008060808587031215612a1857612a17612511565b5b6000612a268782880161275e565b9450506020612a378782880161275e565b9350506040612a48878288016126a9565b925050606085013567ffffffffffffffff811115612a6957612a68612516565b5b612a75878288016129d0565b91505092959194509250565b600067ffffffffffffffff821115612a9c57612a9b6128d3565b5b612aa58261261c565b9050602081019050919050565b6000612ac5612ac084612a81565b612933565b905082815260208101848484011115612ae157612ae06128ce565b5b612aec84828561297f565b509392505050565b600082601f830112612b0957612b086128c9565b5b8135612b19848260208601612ab2565b91505092915050565b60008060408385031215612b3957612b38612511565b5b6000612b478582860161275e565b925050602083013567ffffffffffffffff811115612b6857612b67612516565b5b612b7485828601612af4565b9150509250929050565b60008060408385031215612b9557612b94612511565b5b6000612ba38582860161275e565b9250506020612bb48582860161275e565b9150509250929050565b7f4e487b7100000000000000000000000000000000000000000000000000000000600052602260045260246000fd5b60006002820490506001821680612c0557607f821691505b602082108103612c1857612c17612bbe565b5b50919050565b7f4552433732313a20617070726f76616c20746f2063757272656e74206f776e6560008201527f7200000000000000000000000000000000000000000000000000000000000000602082015250565b6000612c7a6021836125e1565b9150612c8582612c1e565b604082019050919050565b60006020820190508181036000830152612ca981612c6d565b9050919050565b7f4552433732313a20617070726f76652063616c6c6572206973206e6f7420746f60008201527f6b656e206f776e6572206f7220617070726f76656420666f7220616c6c000000602082015250565b6000612d0c603d836125e1565b9150612d1782612cb0565b604082019050919050565b60006020820190508181036000830152612d3b81612cff565b9050919050565b7f4552433732313a2063616c6c6572206973206e6f7420746f6b656e206f776e6560008201527f72206f7220617070726f76656400000000000000000000000000000000000000602082015250565b6000612d9e602d836125e1565b9150612da982612d42565b604082019050919050565b60006020820190508181036000830152612dcd81612d91565b9050919050565b7f455243373231456e756d657261626c653a206f776e657220696e646578206f7560008201527f74206f6620626f756e6473000000000000000000000000000000000000000000602082015250565b6000612e30602b836125e1565b9150612e3b82612dd4565b604082019050919050565b60006020820190508181036000830152612e5f81612e23565b9050919050565b7f455243373231456e756d657261626c653a20676c6f62616c20696e646578206f60008201527f7574206f6620626f756e64730000000000000000000000000000000000000000602082015250565b6000612ec2602c836125e1565b9150612ecd82612e66565b604082019050919050565b60006020820190508181036000830152612ef181612eb5565b9050919050565b7f4e487b7100000000000000000000000000000000000000000000000000000000600052603260045260246000fd5b7f4552433732313a20696e76616c696420746f6b656e2049440000000000000000600082015250565b6000612f5d6018836125e1565b9150612f6882612f27565b602082019050919050565b60006020820190508181036000830152612f8c81612f50565b9050919050565b7f4552433732313a2061646472657373207a65726f206973206e6f74206120766160008201527f6c6964206f776e65720000000000000000000000000000000000000000000000602082015250565b6000612fef6029836125e1565b9150612ffa82612f93565b604082019050919050565b6000602082019050818103600083015261301e81612fe2565b9050919050565b7f4f776e61626c653a206e6577206f776e657220697320746865207a65726f206160008201527f6464726573730000000000000000000000000000000000000000000000000000602082015250565b60006130816026836125e1565b915061308c82613025565b604082019050919050565b600060208201905081810360008301526130b081613074565b9050919050565b7f4552433732313a207472616e736665722066726f6d20696e636f72726563742060008201527f6f776e6572000000000000000000000000000000000000000000000000000000602082015250565b60006131136025836125e1565b915061311e826130b7565b604082019050919050565b6000602082019050818103600083015261314281613106565b9050919050565b7f4552433732313a207472616e7366657220746f20746865207a65726f2061646460008201527f7265737300000000000000000000000000000000000000000000000000000000602082015250565b60006131a56024836125e1565b91506131b082613149565b604082019050919050565b600060208201905081810360008301526131d481613198565b9050919050565b7f4f776e61626c653a2063616c6c6572206973206e6f7420746865206f776e6572600082015250565b60006132116020836125e1565b915061321c826131db565b602082019050919050565b6000602082019050818103600083015261324081613204565b9050919050565b7f4552433732313a20617070726f766520746f2063616c6c657200000000000000600082015250565b600061327d6019836125e1565b915061328882613247565b602082019050919050565b600060208201905081810360008301526132ac81613270565b9050919050565b7f4552433732313a207472616e7366657220746f206e6f6e20455243373231526560008201527f63656976657220696d706c656d656e7465720000000000000000000000000000602082015250565b600061330f6032836125e1565b915061331a826132b3565b604082019050919050565b6000602082019050818103600083015261333e81613302565b9050919050565b600081905092915050565b600061335b826125d6565b6133658185613345565b93506133758185602086016125f2565b80840191505092915050565b600061338d8285613350565b91506133998284613350565b91508190509392505050565b7f45524337323155524953746f726167653a2055524920736574206f66206e6f6e60008201527f6578697374656e7420746f6b656e000000000000000000000000000000000000602082015250565b6000613401602e836125e1565b915061340c826133a5565b604082019050919050565b60006020820190508181036000830152613430816133f4565b9050919050565b60008190508160005260206000209050919050565b60006020601f8301049050919050565b600082821b905092915050565b6000600883026134997fffffffffffffffffffffffffffffffffffffffffffffffffffffffffffffffff8261345c565b6134a3868361345c565b95508019841693508086168417925050509392505050565b6000819050919050565b60006134e06134db6134d684612688565b6134bb565b612688565b9050919050565b6000819050919050565b6134fa836134c5565b61350e613506826134e7565b848454613469565b825550505050565b600090565b613523613516565b61352e8184846134f1565b505050565b5b818110156135525761354760008261351b565b600181019050613534565b5050565b601f8211156135975761356881613437565b6135718461344c565b81016020851015613580578190505b61359461358c8561344c565b830182613533565b50505b505050565b600082821c905092915050565b60006135ba6000198460080261359c565b1980831691505092915050565b60006135d383836135a9565b9150826002028217905092915050565b6135ec826125d6565b67ffffffffffffffff811115613605576136046128d3565b5b61360f8254612bed565b61361a828285613556565b600060209050601f83116001811461364d576000841561363b578287015190505b61364585826135c7565b8655506136ad565b601f19841661365b86613437565b60005b828110156136835784890151825560018201915060208501945060208101905061365e565b868310156136a0578489015161369c601f8916826135a9565b8355505b6001600288020188555050505b505050505050565b600081519050919050565b600082825260208201905092915050565b60006136dc826136b5565b6136e681856136c0565b93506136f68185602086016125f2565b6136ff8161261c565b840191505092915050565b600060808201905061371f600083018761271d565b61372c602083018661271d565b61373960408301856127b3565b818103606083015261374b81846136d1565b905095945050505050565b60008151905061376581612547565b92915050565b60006020828403121561378157613780612511565b5b600061378f84828501613756565b91505092915050565b7f455243373231456e756d657261626c653a20636f6e736563757469766520747260008201527f616e7366657273206e6f7420737570706f727465640000000000000000000000602082015250565b60006137f46035836125e1565b91506137ff82613798565b604082019050919050565b60006020820190508181036000830152613823816137e7565b9050919050565b7f4e487b7100000000000000000000000000000000000000000000000000000000600052601260045260246000fd5b7f4552433732313a206d696e7420746f20746865207a65726f2061646472657373600082015250565b600061388f6020836125e1565b915061389a82613859565b602082019050919050565b600060208201905081810360008301526138be81613882565b9050919050565b7f4552433732313a20746f6b656e20616c7265616479206d696e74656400000000600082015250565b60006138fb601c836125e1565b9150613906826138c5565b602082019050919050565b6000602082019050818103600083015261392a816138ee565b9050919050565b7f4e487b7100000000000000000000000000000000000000000000000000000000600052601160045260246000fd5b600061396b82612688565b915061397683612688565b925082820390508181111561398e5761398d613931565b5b92915050565b7f4e487b7100000000000000000000000000000000000000000000000000000000600052603160045260246000fdfe697066733a2f2f6261666b726569657a61703767726f736236746c366d3766633370707665357532787a3761347465706b376171633776657773746d7672767a676da2646970667358221220c49ee22a60697dbe69ac80613dce83aa008afc3bafcc2420c711e42577c5378f64736f6c63430008110033",
  "linkReferences": {},
  "deployedLinkReferences": {}
}