{
  "_format": "hh-sol-artifact-1",
  "contractName": "AnonCard",
  "sourceName": "contracts/AnonCard.sol",
  "abi": [
    {
      "inputs": [],
      "stateMutability": "nonpayable",
      "type": "constructor"
    },
    {
      "anonymous": false,
      "inputs": [
        {
          "indexed": true,
          "internalType": "address",
          "name": "owner",
          "type": "address"
        },
        {
          "indexed": true,
          "internalType": "address",
          "name": "approved",
          "type": "address"
        },
        {
          "indexed": true,
          "internalType": "uint256",
          "name": "tokenId",
          "type": "uint256"
        }
      ],
      "name": "Approval",
      "type": "event"
    },
    {
      "anonymous": false,
      "inputs": [
        {
          "indexed": true,
          "internalType": "address",
          "name": "owner",
          "type": "address"
        },
        {
          "indexed": true,
          "internalType": "address",
          "name": "operator",
          "type": "address"
        },
        {
          "indexed": false,
          "internalType": "bool",
          "name": "approved",
          "type": "bool"
        }
      ],
      "name": "ApprovalForAll",
      "type": "event"
    },
    {
      "anonymous": false,
      "inputs": [
        {
          "indexed": true,
          "internalType": "address",
          "name": "previousOwner",
          "type": "address"
        },
        {
          "indexed": true,
          "internalType": "address",
          "name": "newOwner",
          "type": "address"
        }
      ],
      "name": "OwnershipTransferred",
      "type": "event"
    },
    {
      "anonymous": false,
      "inputs": [
        {
          "indexed": true,
          "internalType": "address",
          "name": "from",
          "type": "address"
        },
        {
          "indexed": true,
          "internalType": "address",
          "name": "to",
          "type": "address"
        },
        {
          "indexed": true,
          "internalType": "uint256",
          "name": "tokenId",
          "type": "uint256"
        }
      ],
      "name": "Transfer",
      "type": "event"
    },
    {
      "inputs": [
        {
          "internalType": "address",
          "name": "to",
          "type": "address"
        },
        {
          "internalType": "uint256",
          "name": "tokenId",
          "type": "uint256"
        }
      ],
      "name": "approve",
      "outputs": [],
      "stateMutability": "nonpayable",
      "type": "function"
    },
    {
      "inputs": [
        {
          "internalType": "address",
          "name": "owner",
          "type": "address"
        }
      ],
      "name": "balanceOf",
      "outputs": [
        {
          "internalType": "uint256",
          "name": "",
          "type": "uint256"
        }
      ],
      "stateMutability": "view",
      "type": "function"
    },
    {
      "inputs": [
        {
          "internalType": "uint256",
          "name": "tokenId",
          "type": "uint256"
        }
      ],
      "name": "burn",
      "outputs": [],
      "stateMutability": "nonpayable",
      "type": "function"
    },
    {
      "inputs": [
        {
          "internalType": "uint256",
          "name": "tokenId",
          "type": "uint256"
        }
      ],
      "name": "getApproved",
      "outputs": [
        {
          "internalType": "address",
          "name": "",
          "type": "address"
        }
      ],
      "stateMutability": "view",
      "type": "function"
    },
    {
      "inputs": [
        {
          "internalType": "address",
          "name": "owner",
          "type": "address"
        },
        {
          "internalType": "address",
          "name": "operator",
          "type": "address"
        }
      ],
      "name": "isApprovedForAll",
      "outputs": [
        {
          "internalType": "bool",
          "name": "",
          "type": "bool"
        }
      ],
      "stateMutability": "view",
      "type": "function"
    },
    {
      "inputs": [],
      "name": "name",
      "outputs": [
        {
          "internalType": "string",
          "name": "",
          "type": "string"
        }
      ],
      "stateMutability": "view",
      "type": "function"
    },
    {
      "inputs": [],
      "name": "owner",
      "outputs": [
        {
          "internalType": "address",
          "name": "",
          "type": "address"
        }
      ],
      "stateMutability": "view",
      "type": "function"
    },
    {
      "inputs": [
        {
          "internalType": "uint256",
          "name": "tokenId",
          "type": "uint256"
        }
      ],
      "name": "ownerOf",
      "outputs": [
        {
          "internalType": "address",
          "name": "",
          "type": "address"
        }
      ],
      "stateMutability": "view",
      "type": "function"
    },
    {
      "inputs": [],
      "name": "renounceOwnership",
      "outputs": [],
      "stateMutability": "nonpayable",
      "type": "function"
    },
    {
      "inputs": [
        {
          "internalType": "address",
          "name": "to",
          "type": "address"
        },
        {
          "internalType": "string",
          "name": "uri",
          "type": "string"
        }
      ],
      "name": "safeMint",
      "outputs": [],
      "stateMutability": "nonpayable",
      "type": "function"
    },
    {
      "inputs": [
        {
          "internalType": "address",
          "name": "from",
          "type": "address"
        },
        {
          "internalType": "address",
          "name": "to",
          "type": "address"
        },
        {
          "internalType": "uint256",
          "name": "tokenId",
          "type": "uint256"
        }
      ],
      "name": "safeTransferFrom",
      "outputs": [],
      "stateMutability": "nonpayable",
      "type": "function"
    },
    {
      "inputs": [
        {
          "internalType": "address",
          "name": "from",
          "type": "address"
        },
        {
          "internalType": "address",
          "name": "to",
          "type": "address"
        },
        {
          "internalType": "uint256",
          "name": "tokenId",
          "type": "uint256"
        },
        {
          "internalType": "bytes",
          "name": "data",
          "type": "bytes"
        }
      ],
      "name": "safeTransferFrom",
      "outputs": [],
      "stateMutability": "nonpayable",
      "type": "function"
    },
    {
      "inputs": [
        {
          "internalType": "address",
          "name": "operator",
          "type": "address"
        },
        {
          "internalType": "bool",
          "name": "approved",
          "type": "bool"
        }
      ],
      "name": "setApprovalForAll",
      "outputs": [],
      "stateMutability": "nonpayable",
      "type": "function"
    },
    {
      "inputs": [
        {
          "internalType": "bytes4",
          "name": "interfaceId",
          "type": "bytes4"
        }
      ],
      "name": "supportsInterface",
      "outputs": [
        {
          "internalType": "bool",
          "name": "",
          "type": "bool"
        }
      ],
      "stateMutability": "view",
      "type": "function"
    },
    {
      "inputs": [],
      "name": "symbol",
      "outputs": [
        {
          "internalType": "string",
          "name": "",
          "type": "string"
        }
      ],
      "stateMutability": "view",
      "type": "function"
    },
    {
      "inputs": [
        {
          "internalType": "uint256",
          "name": "index",
          "type": "uint256"
        }
      ],
      "name": "tokenByIndex",
      "outputs": [
        {
          "internalType": "uint256",
          "name": "",
          "type": "uint256"
        }
      ],
      "stateMutability": "view",
      "type": "function"
    },
    {
      "inputs": [
        {
          "internalType": "address",
          "name": "owner",
          "type": "address"
        },
        {
          "internalType": "uint256",
          "name": "index",
          "type": "uint256"
        }
      ],
      "name": "tokenOfOwnerByIndex",
      "outputs": [
        {
          "internalType": "uint256",
          "name": "",
          "type": "uint256"
        }
      ],
      "stateMutability": "view",
      "type": "function"
    },
    {
      "inputs": [
        {
          "internalType": "uint256",
          "name": "tokenId",
          "type": "uint256"
        }
      ],
      "name": "tokenURI",
      "outputs": [
        {
          "internalType": "string",
          "name": "",
          "type": "string"
        }
      ],
      "stateMutability": "view",
      "type": "function"
    },
    {
      "inputs": [],
      "name": "totalSupply",
      "outputs": [
        {
          "internalType": "uint256",
          "name": "",
          "type": "uint256"
        }
      ],
      "stateMutability": "view",
      "type": "function"
    },
    {
      "inputs": [
        {
          "internalType": "address",
          "name": "from",
          "type": "address"
        },
        {
          "internalType": "address",
          "name": "to",
          "type": "address"
        },
        {
          "internalType": "uint256",
          "name": "tokenId",
          "type": "uint256"
        }
      ],
      "name": "transferFrom",
      "outputs": [],
      "stateMutability": "nonpayable",
      "type": "function"
    },
    {
      "inputs": [
        {
          "internalType": "address",
          "name": "newOwner",
          "type": "address"
        }
      ],
      "name": "transferOwnership",
      "outputs": [],
      "stateMutability": "nonpayable",
      "type": "function"
    }
  ],
  "bytecode": "0x60806040523480156200001157600080fd5b506040518060400160405280600881526020017f416e6f6e436172640000000000000000000000000000000000000000000000008152506040518060400160405280600881526020017f414e4f4e4341524400000000000000000000000000000000000000000000000081525081600090816200008f919062000412565b508060019081620000a1919062000412565b505050620000c4620000b8620000ca60201b60201c565b620000d260201b60201c565b620004f9565b600033905090565b6000600b60009054906101000a900473ffffffffffffffffffffffffffffffffffffffff16905081600b60006101000a81548173ffffffffffffffffffffffffffffffffffffffff021916908373ffffffffffffffffffffffffffffffffffffffff1602179055508173ffffffffffffffffffffffffffffffffffffffff168173ffffffffffffffffffffffffffffffffffffffff167f8be0079c531659141344cd1fd0a4f28419497f9722a3daafe3b4186f6b6457e060405160405180910390a35050565b600081519050919050565b7f4e487b7100000000000000000000000000000000000000000000000000000000600052604160045260246000fd5b7f4e487b7100000000000000000000000000000000000000000000000000000000600052602260045260246000fd5b600060028204905060018216806200021a57607f821691505b60208210810362000230576200022f620001d2565b5b50919050565b60008190508160005260206000209050919050565b60006020601f8301049050919050565b600082821b905092915050565b6000600883026200029a7fffffffffffffffffffffffffffffffffffffffffffffffffffffffffffffffff826200025b565b620002a686836200025b565b95508019841693508086168417925050509392505050565b6000819050919050565b6000819050919050565b6000620002f3620002ed620002e784620002be565b620002c8565b620002be565b9050919050565b6000819050919050565b6200030f83620002d2565b620003276200031e82620002fa565b84845462000268565b825550505050565b600090565b6200033e6200032f565b6200034b81848462000304565b505050565b5b8181101562000373576200036760008262000334565b60018101905062000351565b5050565b601f821115620003c2576200038c8162000236565b62000397846200024b565b81016020851015620003a7578190505b620003bf620003b6856200024b565b83018262000350565b50505b505050565b600082821c905092915050565b6000620003e760001984600802620003c7565b1980831691505092915050565b6000620004028383620003d4565b9150826002028217905092915050565b6200041d8262000198565b67ffffffffffffffff811115620004395762000438620001a3565b5b62000445825462000201565b6200045282828562000377565b600060209050601f8311600181146200048a576000841562000475578287015190505b620004818582620003f4565b865550620004f1565b601f1984166200049a8662000236565b60005b82811015620004c4578489015182556001820191506020850194506020810190506200049d565b86831015620004e45784890151620004e0601f891682620003d4565b8355505b6001600288020188555050505b505050505050565b6139e880620005096000396000f3fe608060405234801561001057600080fd5b50600436106101375760003560e01c80636352211e116100b8578063a22cb4651161007c578063a22cb4651461034e578063b88d4fde1461036a578063c87b56dd14610386578063d204c45e146103b6578063e985e9c5146103d2578063f2fde38b1461040257610137565b80636352211e146102a857806370a08231146102d8578063715018a6146103085780638da5cb5b1461031257806395d89b411461033057610137565b806323b872dd116100ff57806323b872dd146101f45780632f745c591461021057806342842e0e1461024057806342966c681461025c5780634f6ccce71461027857610137565b806301ffc9a71461013c57806306fdde031461016c578063081812fc1461018a578063095ea7b3146101ba57806318160ddd146101d6575b600080fd5b61015660048036038101906101519190612562565b61041e565b60405161016391906125aa565b60405180910390f35b610174610430565b6040516101819190612655565b60405180910390f35b6101a4600480360381019061019f91906126ad565b6104c2565b6040516101b1919061271b565b60405180910390f35b6101d460048036038101906101cf9190612762565b610508565b005b6101de61061f565b6040516101eb91906127b1565b60405180910390f35b61020e600480360381019061020991906127cc565b61062c565b005b61022a60048036038101906102259190612762565b61068c565b60405161023791906127b1565b60405180910390f35b61025a600480360381019061025591906127cc565b610731565b005b610276600480360381019061027191906126ad565b610751565b005b610292600480360381019061028d91906126ad565b6107ad565b60405161029f91906127b1565b60405180910390f35b6102c260048036038101906102bd91906126ad565b61081e565b6040516102cf919061271b565b60405180910390f35b6102f260048036038101906102ed919061281f565b6108a4565b6040516102ff91906127b1565b60405180910390f35b61031061095b565b005b61031a61096f565b604051610327919061271b565b60405180910390f35b610338610999565b6040516103459190612655565b60405180910390f35b61036860048036038101906103639190612878565b610a2b565b005b610384600480360381019061037f91906129ed565b610a41565b005b6103a0600480360381019061039b91906126ad565b610aa3565b6040516103ad9190612655565b60405180910390f35b6103d060048036038101906103cb9190612b11565b610ab5565b005b6103ec60048036038101906103e79190612b6d565b610ae6565b6040516103f991906125aa565b60405180910390f35b61041c6004803603810190610417919061281f565b610b7a565b005b600061042982610bfd565b9050919050565b60606000805461043f90612bdc565b80601f016020809104026020016040519081016040528092919081815260200182805461046b90612bdc565b80156104b85780601f1061048d576101008083540402835291602001916104b8565b820191906000526020600020905b81548152906001019060200180831161049b57829003601f168201915b5050505050905090565b60006104cd82610c77565b6004600083815260200190815260200160002060009054906101000a900473ffffffffffffffffffffffffffffffffffffffff169050919050565b60006105138261081e565b90508073ffffffffffffffffffffffffffffffffffffffff168373ffffffffffffffffffffffffffffffffffffffff1603610583576040517f08c379a000000000000000000000000000000000000000000000000000000000815260040161057a90612c7f565b60405180910390fd5b8073ffffffffffffffffffffffffffffffffffffffff166105a2610cc2565b73ffffffffffffffffffffffffffffffffffffffff1614806105d157506105d0816105cb610cc2565b610ae6565b5b610610576040517f08c379a000000000000000000000000000000000000000000000000000000000815260040161060790612d11565b60405180910390fd5b61061a8383610cca565b505050565b6000600880549050905090565b61063d610637610cc2565b82610d83565b61067c576040517f08c379a000000000000000000000000000000000000000000000000000000000815260040161067390612da3565b60405180910390fd5b610687838383610e18565b505050565b6000610697836108a4565b82106106d8576040517f08c379a00000000000000000000000000000000000000000000000000000000081526004016106cf90612e35565b60405180910390fd5b600660008473ffffffffffffffffffffffffffffffffffffffff1673ffffffffffffffffffffffffffffffffffffffff168152602001908152602001600020600083815260200190815260200160002054905092915050565b61074c83838360405180602001604052806000815250610a41565b505050565b61076261075c610cc2565b82610d83565b6107a1576040517f08c379a000000000000000000000000000000000000000000000000000000000815260040161079890612da3565b60405180910390fd5b6107aa81611111565b50565b60006107b761061f565b82106107f8576040517f08c379a00000000000000000000000000000000000000000000000000000000081526004016107ef90612ec7565b60405180910390fd5b6008828154811061080c5761080b612ee7565b5b90600052602060002001549050919050565b60008061082a8361111d565b9050600073ffffffffffffffffffffffffffffffffffffffff168173ffffffffffffffffffffffffffffffffffffffff160361089b576040517f08c379a000000000000000000000000000000000000000000000000000000000815260040161089290612f62565b60405180910390fd5b80915050919050565b60008073ffffffffffffffffffffffffffffffffffffffff168273ffffffffffffffffffffffffffffffffffffffff1603610914576040517f08c379a000000000000000000000000000000000000000000000000000000000815260040161090b90612ff4565b60405180910390fd5b600360008373ffffffffffffffffffffffffffffffffffffffff1673ffffffffffffffffffffffffffffffffffffffff168152602001908152602001600020549050919050565b61096361115a565b61096d60006111d8565b565b6000600b60009054906101000a900473ffffffffffffffffffffffffffffffffffffffff16905090565b6060600180546109a890612bdc565b80601f01602080910402602001604051908101604052809291908181526020018280546109d490612bdc565b8015610a215780601f106109f657610100808354040283529160200191610a21565b820191906000526020600020905b815481529060010190602001808311610a0457829003601f168201915b5050505050905090565b610a3d610a36610cc2565b838361129e565b5050565b610a52610a4c610cc2565b83610d83565b610a91576040517f08c379a0000000000000000000000000000000000000000000000000000000008152600401610a8890612da3565b60405180910390fd5b610a9d8484848461140a565b50505050565b6060610aae82611466565b9050919050565b6000610ac1600c611578565b9050610acd600c611586565b610ad7838261159c565b610ae181836115ba565b505050565b6000600560008473ffffffffffffffffffffffffffffffffffffffff1673ffffffffffffffffffffffffffffffffffffffff16815260200190815260200160002060008373ffffffffffffffffffffffffffffffffffffffff1673ffffffffffffffffffffffffffffffffffffffff16815260200190815260200160002060009054906101000a900460ff16905092915050565b610b8261115a565b600073ffffffffffffffffffffffffffffffffffffffff168173ffffffffffffffffffffffffffffffffffffffff1603610bf1576040517f08c379a0000000000000000000000000000000000000000000000000000000008152600401610be890613086565b60405180910390fd5b610bfa816111d8565b50565b60007f780e9d63000000000000000000000000000000000000000000000000000000007bffffffffffffffffffffffffffffffffffffffffffffffffffffffff1916827bffffffffffffffffffffffffffffffffffffffffffffffffffffffff19161480610c705750610c6f82611627565b5b9050919050565b610c8081611709565b610cbf576040517f08c379a0000000000000000000000000000000000000000000000000000000008152600401610cb690612f62565b60405180910390fd5b50565b600033905090565b816004600083815260200190815260200160002060006101000a81548173ffffffffffffffffffffffffffffffffffffffff021916908373ffffffffffffffffffffffffffffffffffffffff160217905550808273ffffffffffffffffffffffffffffffffffffffff16610d3d8361081e565b73ffffffffffffffffffffffffffffffffffffffff167f8c5be1e5ebec7d5bd14f71427d1e84f3dd0314c0f7b2291e5b200ac8c7c3b92560405160405180910390a45050565b600080610d8f8361081e565b90508073ffffffffffffffffffffffffffffffffffffffff168473ffffffffffffffffffffffffffffffffffffffff161480610dd15750610dd08185610ae6565b5b80610e0f57508373ffffffffffffffffffffffffffffffffffffffff16610df7846104c2565b73ffffffffffffffffffffffffffffffffffffffff16145b91505092915050565b8273ffffffffffffffffffffffffffffffffffffffff16610e388261081e565b73ffffffffffffffffffffffffffffffffffffffff1614610e8e576040517f08c379a0000000000000000000000000000000000000000000000000000000008152600401610e8590613118565b60405180910390fd5b600073ffffffffffffffffffffffffffffffffffffffff168273ffffffffffffffffffffffffffffffffffffffff1603610efd576040517f08c379a0000000000000000000000000000000000000000000000000000000008152600401610ef4906131aa565b60405180910390fd5b610f0a838383600161174a565b8273ffffffffffffffffffffffffffffffffffffffff16610f2a8261081e565b73ffffffffffffffffffffffffffffffffffffffff1614610f80576040517f08c379a0000000000000000000000000000000000000000000000000000000008152600401610f7790613118565b60405180910390fd5b6004600082815260200190815260200160002060006101000a81549073ffffffffffffffffffffffffffffffffffffffff02191690556001600360008573ffffffffffffffffffffffffffffffffffffffff1673ffffffffffffffffffffffffffffffffffffffff168152602001908152602001600020600082825403925050819055506001600360008473ffffffffffffffffffffffffffffffffffffffff1673ffffffffffffffffffffffffffffffffffffffff16815260200190815260200160002060008282540192505081905550816002600083815260200190815260200160002060006101000a81548173ffffffffffffffffffffffffffffffffffffffff021916908373ffffffffffffffffffffffffffffffffffffffff160217905550808273ffffffffffffffffffffffffffffffffffffffff168473ffffffffffffffffffffffffffffffffffffffff167fddf252ad1be2c89b69c2b068fc378daa952ba7f163c4a11628f55a4df523b3ef60405160405180910390a461110c838383600161175c565b505050565b61111a81611762565b50565b60006002600083815260200190815260200160002060009054906101000a900473ffffffffffffffffffffffffffffffffffffffff169050919050565b611162610cc2565b73ffffffffffffffffffffffffffffffffffffffff1661118061096f565b73ffffffffffffffffffffffffffffffffffffffff16146111d6576040517f08c379a00000000000000000000000000000000000000000000000000000000081526004016111cd90613216565b60405180910390fd5b565b6000600b60009054906101000a900473ffffffffffffffffffffffffffffffffffffffff16905081600b60006101000a81548173ffffffffffffffffffffffffffffffffffffffff021916908373ffffffffffffffffffffffffffffffffffffffff1602179055508173ffffffffffffffffffffffffffffffffffffffff168173ffffffffffffffffffffffffffffffffffffffff167f8be0079c531659141344cd1fd0a4f28419497f9722a3daafe3b4186f6b6457e060405160405180910390a35050565b8173ffffffffffffffffffffffffffffffffffffffff168373ffffffffffffffffffffffffffffffffffffffff160361130c576040517f08c379a000000000000000000000000000000000000000000000000000000000815260040161130390613282565b60405180910390fd5b80600560008573ffffffffffffffffffffffffffffffffffffffff1673ffffffffffffffffffffffffffffffffffffffff16815260200190815260200160002060008473ffffffffffffffffffffffffffffffffffffffff1673ffffffffffffffffffffffffffffffffffffffff16815260200190815260200160002060006101000a81548160ff0219169083151502179055508173ffffffffffffffffffffffffffffffffffffffff168373ffffffffffffffffffffffffffffffffffffffff167f17307eab39ab6107e8899845ad3d59bd9653f200f220920489ca2b5937696c31836040516113fd91906125aa565b60405180910390a3505050565b611415848484610e18565b611421848484846117b5565b611460576040517f08c379a000000000000000000000000000000000000000000000000000000000815260040161145790613314565b60405180910390fd5b50505050565b606061147182610c77565b6000600a6000848152602001908152602001600020805461149190612bdc565b80601f01602080910402602001604051908101604052809291908181526020018280546114bd90612bdc565b801561150a5780601f106114df5761010080835404028352916020019161150a565b820191906000526020600020905b8154815290600101906020018083116114ed57829003601f168201915b50505050509050600061151b61193c565b90506000815103611530578192505050611573565b60008251111561156557808260405160200161154d929190613370565b60405160208183030381529060405292505050611573565b61156e84611953565b925050505b919050565b600081600001549050919050565b6001816000016000828254019250508190555050565b6115b68282604051806020016040528060008152506119bb565b5050565b6115c382611709565b611602576040517f08c379a00000000000000000000000000000000000000000000000000000000081526004016115f990613406565b60405180910390fd5b80600a6000848152602001908152602001600020908161162291906135d2565b505050565b60007f80ac58cd000000000000000000000000000000000000000000000000000000007bffffffffffffffffffffffffffffffffffffffffffffffffffffffff1916827bffffffffffffffffffffffffffffffffffffffffffffffffffffffff191614806116f257507f5b5e139f000000000000000000000000000000000000000000000000000000007bffffffffffffffffffffffffffffffffffffffffffffffffffffffff1916827bffffffffffffffffffffffffffffffffffffffffffffffffffffffff1916145b80611702575061170182611a16565b5b9050919050565b60008073ffffffffffffffffffffffffffffffffffffffff1661172b8361111d565b73ffffffffffffffffffffffffffffffffffffffff1614159050919050565b61175684848484611a80565b50505050565b50505050565b61176b81611bde565b6000600a6000838152602001908152602001600020805461178b90612bdc565b9050146117b257600a600082815260200190815260200160002060006117b19190612499565b5b50565b60006117d68473ffffffffffffffffffffffffffffffffffffffff16611d2c565b1561192f578373ffffffffffffffffffffffffffffffffffffffff1663150b7a026117ff610cc2565b8786866040518563ffffffff1660e01b815260040161182194939291906136f9565b6020604051808303816000875af192505050801561185d57506040513d601f19601f8201168201806040525081019061185a919061375a565b60015b6118df573d806000811461188d576040519150601f19603f3d011682016040523d82523d6000602084013e611892565b606091505b5060008151036118d7576040517f08c379a00000000000000000000000000000000000000000000000000000000081526004016118ce90613314565b60405180910390fd5b805181602001fd5b63150b7a0260e01b7bffffffffffffffffffffffffffffffffffffffffffffffffffffffff1916817bffffffffffffffffffffffffffffffffffffffffffffffffffffffff191614915050611934565b600190505b949350505050565b606060405180602001604052806000815250905090565b606061195e82610c77565b600061196861193c565b9050600081511161198857604051806020016040528060008152506119b3565b8061199284611d4f565b6040516020016119a3929190613370565b6040516020818303038152906040525b915050919050565b6119c58383611e1d565b6119d260008484846117b5565b611a11576040517f08c379a0000000000000000000000000000000000000000000000000000000008152600401611a0890613314565b60405180910390fd5b505050565b60007f01ffc9a7000000000000000000000000000000000000000000000000000000007bffffffffffffffffffffffffffffffffffffffffffffffffffffffff1916827bffffffffffffffffffffffffffffffffffffffffffffffffffffffff1916149050919050565b611a8c8484848461203a565b6001811115611ad0576040517f08c379a0000000000000000000000000000000000000000000000000000000008152600401611ac7906137f9565b60405180910390fd5b6000829050600073ffffffffffffffffffffffffffffffffffffffff168573ffffffffffffffffffffffffffffffffffffffff1603611b1757611b1281612040565b611b56565b8373ffffffffffffffffffffffffffffffffffffffff168573ffffffffffffffffffffffffffffffffffffffff1614611b5557611b548582612089565b5b5b600073ffffffffffffffffffffffffffffffffffffffff168473ffffffffffffffffffffffffffffffffffffffff1603611b9857611b93816121f6565b611bd7565b8473ffffffffffffffffffffffffffffffffffffffff168473ffffffffffffffffffffffffffffffffffffffff1614611bd657611bd584826122c7565b5b5b5050505050565b6000611be98261081e565b9050611bf981600084600161174a565b611c028261081e565b90506004600083815260200190815260200160002060006101000a81549073ffffffffffffffffffffffffffffffffffffffff02191690556001600360008373ffffffffffffffffffffffffffffffffffffffff1673ffffffffffffffffffffffffffffffffffffffff168152602001908152602001600020600082825403925050819055506002600083815260200190815260200160002060006101000a81549073ffffffffffffffffffffffffffffffffffffffff021916905581600073ffffffffffffffffffffffffffffffffffffffff168273ffffffffffffffffffffffffffffffffffffffff167fddf252ad1be2c89b69c2b068fc378daa952ba7f163c4a11628f55a4df523b3ef60405160405180910390a4611d2881600084600161175c565b5050565b6000808273ffffffffffffffffffffffffffffffffffffffff163b119050919050565b606060006001611d5e84612346565b01905060008167ffffffffffffffff811115611d7d57611d7c6128c2565b5b6040519080825280601f01601f191660200182016040528015611daf5781602001600182028036833780820191505090505b509050600082602001820190505b600115611e12578080600190039150507f3031323334353637383961626364656600000000000000000000000000000000600a86061a8153600a8581611e0657611e05613819565b5b04945060008503611dbd575b819350505050919050565b600073ffffffffffffffffffffffffffffffffffffffff168273ffffffffffffffffffffffffffffffffffffffff1603611e8c576040517f08c379a0000000000000000000000000000000000000000000000000000000008152600401611e8390613894565b60405180910390fd5b611e9581611709565b15611ed5576040517f08c379a0000000000000000000000000000000000000000000000000000000008152600401611ecc90613900565b60405180910390fd5b611ee360008383600161174a565b611eec81611709565b15611f2c576040517f08c379a0000000000000000000000000000000000000000000000000000000008152600401611f2390613900565b60405180910390fd5b6001600360008473ffffffffffffffffffffffffffffffffffffffff1673ffffffffffffffffffffffffffffffffffffffff16815260200190815260200160002060008282540192505081905550816002600083815260200190815260200160002060006101000a81548173ffffffffffffffffffffffffffffffffffffffff021916908373ffffffffffffffffffffffffffffffffffffffff160217905550808273ffffffffffffffffffffffffffffffffffffffff16600073ffffffffffffffffffffffffffffffffffffffff167fddf252ad1be2c89b69c2b068fc378daa952ba7f163c4a11628f55a4df523b3ef60405160405180910390a461203660008383600161175c565b5050565b50505050565b6008805490506009600083815260200190815260200160002081905550600881908060018154018082558091505060019003906000526020600020016000909190919091505550565b60006001612096846108a4565b6120a0919061394f565b9050600060076000848152602001908152602001600020549050818114612185576000600660008673ffffffffffffffffffffffffffffffffffffffff1673ffffffffffffffffffffffffffffffffffffffff168152602001908152602001600020600084815260200190815260200160002054905080600660008773ffffffffffffffffffffffffffffffffffffffff1673ffffffffffffffffffffffffffffffffffffffff168152602001908152602001600020600084815260200190815260200160002081905550816007600083815260200190815260200160002081905550505b6007600084815260200190815260200160002060009055600660008573ffffffffffffffffffffffffffffffffffffffff1673ffffffffffffffffffffffffffffffffffffffff16815260200190815260200160002060008381526020019081526020016000206000905550505050565b6000600160088054905061220a919061394f565b905060006009600084815260200190815260200160002054905060006008838154811061223a57612239612ee7565b5b90600052602060002001549050806008838154811061225c5761225b612ee7565b5b9060005260206000200181905550816009600083815260200190815260200160002081905550600960008581526020019081526020016000206000905560088054806122ab576122aa613983565b5b6001900381819060005260206000200160009055905550505050565b60006122d2836108a4565b905081600660008573ffffffffffffffffffffffffffffffffffffffff1673ffffffffffffffffffffffffffffffffffffffff168152602001908152602001600020600083815260200190815260200160002081905550806007600084815260200190815260200160002081905550505050565b600080600090507a184f03e93ff9f4daa797ed6e38ed64bf6a1f01000000000000000083106123a4577a184f03e93ff9f4daa797ed6e38ed64bf6a1f010000000000000000838161239a57612399613819565b5b0492506040810190505b6d04ee2d6d415b85acef810000000083106123e1576d04ee2d6d415b85acef810000000083816123d7576123d6613819565b5b0492506020810190505b662386f26fc10000831061241057662386f26fc10000838161240657612405613819565b5b0492506010810190505b6305f5e1008310612439576305f5e100838161242f5761242e613819565b5b0492506008810190505b612710831061245e57612710838161245457612453613819565b5b0492506004810190505b60648310612481576064838161247757612476613819565b5b0492506002810190505b600a8310612490576001810190505b80915050919050565b5080546124a590612bdc565b6000825580601f106124b757506124d6565b601f0160209004906000526020600020908101906124d591906124d9565b5b50565b5b808211156124f25760008160009055506001016124da565b5090565b6000604051905090565b600080fd5b600080fd5b60007fffffffff0000000000000000000000000000000000000000000000000000000082169050919050565b61253f8161250a565b811461254a57600080fd5b50565b60008135905061255c81612536565b92915050565b60006020828403121561257857612577612500565b5b60006125868482850161254d565b91505092915050565b60008115159050919050565b6125a48161258f565b82525050565b60006020820190506125bf600083018461259b565b92915050565b600081519050919050565b600082825260208201905092915050565b60005b838110156125ff5780820151818401526020810190506125e4565b60008484015250505050565b6000601f19601f8301169050919050565b6000612627826125c5565b61263181856125d0565b93506126418185602086016125e1565b61264a8161260b565b840191505092915050565b6000602082019050818103600083015261266f818461261c565b905092915050565b6000819050919050565b61268a81612677565b811461269557600080fd5b50565b6000813590506126a781612681565b92915050565b6000602082840312156126c3576126c2612500565b5b60006126d184828501612698565b91505092915050565b600073ffffffffffffffffffffffffffffffffffffffff82169050919050565b6000612705826126da565b9050919050565b612715816126fa565b82525050565b6000602082019050612730600083018461270c565b92915050565b61273f816126fa565b811461274a57600080fd5b50565b60008135905061275c81612736565b92915050565b6000806040838503121561277957612778612500565b5b60006127878582860161274d565b925050602061279885828601612698565b9150509250929050565b6127ab81612677565b82525050565b60006020820190506127c660008301846127a2565b92915050565b6000806000606084860312156127e5576127e4612500565b5b60006127f38682870161274d565b93505060206128048682870161274d565b925050604061281586828701612698565b9150509250925092565b60006020828403121561283557612834612500565b5b60006128438482850161274d565b91505092915050565b6128558161258f565b811461286057600080fd5b50565b6000813590506128728161284c565b92915050565b6000806040838503121561288f5761288e612500565b5b600061289d8582860161274d565b92505060206128ae85828601612863565b9150509250929050565b600080fd5b600080fd5b7f4e487b7100000000000000000000000000000000000000000000000000000000600052604160045260246000fd5b6128fa8261260b565b810181811067ffffffffffffffff82111715612919576129186128c2565b5b80604052505050565b600061292c6124f6565b905061293882826128f1565b919050565b600067ffffffffffffffff821115612958576129576128c2565b5b6129618261260b565b9050602081019050919050565b82818337600083830152505050565b600061299061298b8461293d565b612922565b9050828152602081018484840111156129ac576129ab6128bd565b5b6129b784828561296e565b509392505050565b600082601f8301126129d4576129d36128b8565b5b81356129e484826020860161297d565b91505092915050565b60008060008060808587031215612a0757612a06612500565b5b6000612a158782880161274d565b9450506020612a268782880161274d565b9350506040612a3787828801612698565b925050606085013567ffffffffffffffff811115612a5857612a57612505565b5b612a64878288016129bf565b91505092959194509250565b600067ffffffffffffffff821115612a8b57612a8a6128c2565b5b612a948261260b565b9050602081019050919050565b6000612ab4612aaf84612a70565b612922565b905082815260208101848484011115612ad057612acf6128bd565b5b612adb84828561296e565b509392505050565b600082601f830112612af857612af76128b8565b5b8135612b08848260208601612aa1565b91505092915050565b60008060408385031215612b2857612b27612500565b5b6000612b368582860161274d565b925050602083013567ffffffffffffffff811115612b5757612b56612505565b5b612b6385828601612ae3565b9150509250929050565b60008060408385031215612b8457612b83612500565b5b6000612b928582860161274d565b9250506020612ba38582860161274d565b9150509250929050565b7f4e487b7100000000000000000000000000000000000000000000000000000000600052602260045260246000fd5b60006002820490506001821680612bf457607f821691505b602082108103612c0757612c06612bad565b5b50919050565b7f4552433732313a20617070726f76616c20746f2063757272656e74206f776e6560008201527f7200000000000000000000000000000000000000000000000000000000000000602082015250565b6000612c696021836125d0565b9150612c7482612c0d565b604082019050919050565b60006020820190508181036000830152612c9881612c5c565b9050919050565b7f4552433732313a20617070726f76652063616c6c6572206973206e6f7420746f60008201527f6b656e206f776e6572206f7220617070726f76656420666f7220616c6c000000602082015250565b6000612cfb603d836125d0565b9150612d0682612c9f565b604082019050919050565b60006020820190508181036000830152612d2a81612cee565b9050919050565b7f4552433732313a2063616c6c6572206973206e6f7420746f6b656e206f776e6560008201527f72206f7220617070726f76656400000000000000000000000000000000000000602082015250565b6000612d8d602d836125d0565b9150612d9882612d31565b604082019050919050565b60006020820190508181036000830152612dbc81612d80565b9050919050565b7f455243373231456e756d657261626c653a206f776e657220696e646578206f7560008201527f74206f6620626f756e6473000000000000000000000000000000000000000000602082015250565b6000612e1f602b836125d0565b9150612e2a82612dc3565b604082019050919050565b60006020820190508181036000830152612e4e81612e12565b9050919050565b7f455243373231456e756d657261626c653a20676c6f62616c20696e646578206f60008201527f7574206f6620626f756e64730000000000000000000000000000000000000000602082015250565b6000612eb1602c836125d0565b9150612ebc82612e55565b604082019050919050565b60006020820190508181036000830152612ee081612ea4565b9050919050565b7f4e487b7100000000000000000000000000000000000000000000000000000000600052603260045260246000fd5b7f4552433732313a20696e76616c696420746f6b656e2049440000000000000000600082015250565b6000612f4c6018836125d0565b9150612f5782612f16565b602082019050919050565b60006020820190508181036000830152612f7b81612f3f565b9050919050565b7f4552433732313a2061646472657373207a65726f206973206e6f74206120766160008201527f6c6964206f776e65720000000000000000000000000000000000000000000000602082015250565b6000612fde6029836125d0565b9150612fe982612f82565b604082019050919050565b6000602082019050818103600083015261300d81612fd1565b9050919050565b7f4f776e61626c653a206e6577206f776e657220697320746865207a65726f206160008201527f6464726573730000000000000000000000000000000000000000000000000000602082015250565b60006130706026836125d0565b915061307b82613014565b604082019050919050565b6000602082019050818103600083015261309f81613063565b9050919050565b7f4552433732313a207472616e736665722066726f6d20696e636f72726563742060008201527f6f776e6572000000000000000000000000000000000000000000000000000000602082015250565b60006131026025836125d0565b915061310d826130a6565b604082019050919050565b60006020820190508181036000830152613131816130f5565b9050919050565b7f4552433732313a207472616e7366657220746f20746865207a65726f2061646460008201527f7265737300000000000000000000000000000000000000000000000000000000602082015250565b60006131946024836125d0565b915061319f82613138565b604082019050919050565b600060208201905081810360008301526131c381613187565b9050919050565b7f4f776e61626c653a2063616c6c6572206973206e6f7420746865206f776e6572600082015250565b60006132006020836125d0565b915061320b826131ca565b602082019050919050565b6000602082019050818103600083015261322f816131f3565b9050919050565b7f4552433732313a20617070726f766520746f2063616c6c657200000000000000600082015250565b600061326c6019836125d0565b915061327782613236565b602082019050919050565b6000602082019050818103600083015261329b8161325f565b9050919050565b7f4552433732313a207472616e7366657220746f206e6f6e20455243373231526560008201527f63656976657220696d706c656d656e7465720000000000000000000000000000602082015250565b60006132fe6032836125d0565b9150613309826132a2565b604082019050919050565b6000602082019050818103600083015261332d816132f1565b9050919050565b600081905092915050565b600061334a826125c5565b6133548185613334565b93506133648185602086016125e1565b80840191505092915050565b600061337c828561333f565b9150613388828461333f565b91508190509392505050565b7f45524337323155524953746f726167653a2055524920736574206f66206e6f6e60008201527f6578697374656e7420746f6b656e000000000000000000000000000000000000602082015250565b60006133f0602e836125d0565b91506133fb82613394565b604082019050919050565b6000602082019050818103600083015261341f816133e3565b9050919050565b60008190508160005260206000209050919050565b60006020601f8301049050919050565b600082821b905092915050565b6000600883026134887fffffffffffffffffffffffffffffffffffffffffffffffffffffffffffffffff8261344b565b613492868361344b565b95508019841693508086168417925050509392505050565b6000819050919050565b60006134cf6134ca6134c584612677565b6134aa565b612677565b9050919050565b6000819050919050565b6134e9836134b4565b6134fd6134f5826134d6565b848454613458565b825550505050565b600090565b613512613505565b61351d8184846134e0565b505050565b5b818110156135415761353660008261350a565b600181019050613523565b5050565b601f8211156135865761355781613426565b6135608461343b565b8101602085101561356f578190505b61358361357b8561343b565b830182613522565b50505b505050565b600082821c905092915050565b60006135a96000198460080261358b565b1980831691505092915050565b60006135c28383613598565b9150826002028217905092915050565b6135db826125c5565b67ffffffffffffffff8111156135f4576135f36128c2565b5b6135fe8254612bdc565b613609828285613545565b600060209050601f83116001811461363c576000841561362a578287015190505b61363485826135b6565b86555061369c565b601f19841661364a86613426565b60005b828110156136725784890151825560018201915060208501945060208101905061364d565b8683101561368f578489015161368b601f891682613598565b8355505b6001600288020188555050505b505050505050565b600081519050919050565b600082825260208201905092915050565b60006136cb826136a4565b6136d581856136af565b93506136e58185602086016125e1565b6136ee8161260b565b840191505092915050565b600060808201905061370e600083018761270c565b61371b602083018661270c565b61372860408301856127a2565b818103606083015261373a81846136c0565b905095945050505050565b60008151905061375481612536565b92915050565b6000602082840312156137705761376f612500565b5b600061377e84828501613745565b91505092915050565b7f455243373231456e756d657261626c653a20636f6e736563757469766520747260008201527f616e7366657273206e6f7420737570706f727465640000000000000000000000602082015250565b60006137e36035836125d0565b91506137ee82613787565b604082019050919050565b60006020820190508181036000830152613812816137d6565b9050919050565b7f4e487b7100000000000000000000000000000000000000000000000000000000600052601260045260246000fd5b7f4552433732313a206d696e7420746f20746865207a65726f2061646472657373600082015250565b600061387e6020836125d0565b915061388982613848565b602082019050919050565b600060208201905081810360008301526138ad81613871565b9050919050565b7f4552433732313a20746f6b656e20616c7265616479206d696e74656400000000600082015250565b60006138ea601c836125d0565b91506138f5826138b4565b602082019050919050565b60006020820190508181036000830152613919816138dd565b9050919050565b7f4e487b7100000000000000000000000000000000000000000000000000000000600052601160045260246000fd5b600061395a82612677565b915061396583612677565b925082820390508181111561397d5761397c613920565b5b92915050565b7f4e487b7100000000000000000000000000000000000000000000000000000000600052603160045260246000fdfea2646970667358221220a08fea5b0c5900eb1f0823fab40916869b64f94003e9f7c6e41f646ad92cd6f164736f6c63430008110033",
  "linkReferences": {},
  "deployedLinkReferences": {}
}